:020000021000EC
:10F0000058C0000074C0000072C0000070C0000052
:10F010006EC000006CC000006AC0000068C0000044
:10F0200066C0000064C0000080C5000060C0000031
:10F030005EC000005CC000005AC0000058C0000064
:10F0400056C0000054C0000052C0000050C0000074
:10F050004EC000004CC000004AC0000048C0000084
:10F0600046C0000044C0000042C0000040C0000094
:10F070003EC000003CC000003AC0000038C00000A4
:10F0800036C0000034C0000032C0000030C00000B4
:10F090002EC000002CC00000180344006500610071
:10F0A0006E002000430061006D0065007200610089
:10F0B000000011241FBECFEFD0E2DEBFCDBF11E0B4
:10F0C000A0E0B1E0EEE0FFEF01E00BBF02C007906F
:10F0D0000D92AE38B107D9F71BBE11E0AEE8B1E032
:10F0E00001C01D92A03AB107E1F743D00EC788CF07
:10F0F00084E08093E9000DC08091E8008B778093D5
:10F10000E80003C08EB3882359F08091E80082FFA5
:10F11000F9CF8091E80085FFEFCF8091F10008954D
:10F1200080E0089593E09093E9009091E80095FDC8
:10F130000DC09091E8009E779093E80003C09EB3C5
:10F14000992331F09091E80090FFF9CF8093F1007E
:10F150000895809194019091950101969093950165
:10F1600080939401009721F488B190E4892788B9AD
:10F1700008952F923F924F925F926F927F928F925B
:10F180009F92AF92BF92CF92DF92EF92FF920F9336
:10F190001F93CF93DF93CDB7DEB729970FB6F894BF
:10F1A000DEBF0FBECDBF8EEF80BB889A84B7877F4E
:10F1B00084BF88E10FB6F8948093600010926000DD
:10F1C0000FBE78999DC280E487B981E085BF82E057
:10F1D00085BF90D4789474E0272EE3E08E2E01E072
:10F1E000F5E03F2EA9E09A2E72C22092E9008091AC
:10F1F000E80082FF6AC27CDF282F853449F48DE065
:10F2000091DF81E090E090938F0180938E0136C270
:10F21000843511F46DDF0CC28C3409F409C28035D9
:10F2200009F406C2843711F484E493C0813611F4E2
:10F2300089E523C2813419F55BDF182F59DF282FA8
:10F2400030E0220F331FA901662757FD6095762F06
:10F25000110F1C831B822B813C81C901AA2797FDBA
:10F26000A095BA2F482B592B6A2B7B2B40939001EA
:10F27000509391016093920170939301D9C18037AB
:10F2800011F483E5FAC1833559F480E091E017E089
:10F290006C01F60181916F0145DF1150D1F7EEC18C
:10F2A000863521F481E33EDF80E3E7C1833731F423
:10F2B00082E838DF87E936DF8EE1DFC1853611F578
:10F2C00080E090E0DC01FC01A0935B00809257009D
:10F2D000E89507B600FCFDCFFC01A0935B003092DF
:10F2E0005700E89507B600FCFDCF80509F4FAF4F09
:10F2F000BF4F8030F0EF9F07F1E0AF07F0E0BF07AE
:10F3000011F796C18C3649F4F3DE8095E1E0F0E028
:10F31000082E90925700E8958BC1823719F4E1E0EE
:10F32000F0E00EC0863419F4E0E0F0E009C08E345D
:10F3300019F4E3E0F0E004C0813531F4E2E0F0E0FC
:10F3400090925700849199C1823631F489E5EADEC2
:10F3500081E0E8DE80E091C1823419F0873609F05F
:10F36000EDC02887C5DE182FC3DEA82EC1DE382FDA
:10F3700085542885823008F07FC11A831982BB2406
:10F3800089819A81A82AB92A273609F04CC091E1CF
:10F3900090935700E89510E0432E40C0C090900134
:10F3A000D0909101E0909201F0909301E6E44E1626
:10F3B000E9F4812F90E0A0E0B0E08C299D29AE29EE
:10F3C000BF29ABBFFC018791ADDE112369F0D701E6
:10F3D000C6010296A11DB11D8093900190939101E9
:10F3E000A0939201B0939301102715C0D701C601D5
:10F3F000B695A7959795879572D594DED701C601E6
:10F400000296A11DB11D8093900190939101A0934C
:10F410009201B09393010894A108B108A114B1041A
:10F4200009F0BCCF2BC140909001509091016090A9
:10F43000920170909301363409F06AC0F201609233
:10F440005B0080925700E89507B600FCFDCF60C0D6
:10F4500029852634B1F53F81332369F1C0909001AD
:10F46000D0909101E0909201F090930141DE8E8363
:10F470001D82812F90E02D813E81822B932B0C01E8
:10F48000F601E0925B0000935700E895112480910B
:10F49000900190919101A0919201B09193010296F7
:10F4A000A11DB11D8093900190939101A0939201B1
:10F4B000B093930102C01CDE182F3F8130273F8399
:10F4C00023C0C0909001D0909101E0909201F09003
:10F4D0009301F694E794D794C7940ADE682FC60187
:10F4E00006D58091900190919101A0919201B091E7
:10F4F00093010296A11DB11D8093900190939101FB
:10F50000A0939201B09393010894A108B10804C09C
:10F5100010E080E039878F83A114B10409F098CFFF
:10F520003985363409F084C0F20160925B00309274
:10F530005700E89507B600FCFDCF7AC0833499F4F4
:10F54000C0909001D0909101E0909201F0909301D1
:10F55000CFDD90E00C01F601E0925B0000935700D4
:10F56000E895112465C08336C1F4C0909001D09015
:10F570009101E0909201F0909301BADDB701A601EC
:10F58000416090E00C01FA0160935B00009357002A
:10F59000E8951124D701C60140C08D3691F48091C1
:10F5A000900190919101A0919201B0919301FC0181
:10F5B000A0935B0030925700E89507B600FCFDCFA2
:10F5C00037C0823581F48091900190919101A09192
:10F5D0009201B0919301ABBFFC01C790D6908D2DE5
:10F5E000A1DD8C2D4AC0843429F5C0909001D090C3
:10F5F0009101E0909201F0909301F694E794D794F2
:10F60000C79476DD682FC60172D4809190019091E5
:10F610009101A0919201B09193010296A11DB11D9B
:10F620008093900190939101A0939201B0939301E4
:10F630008DE023C08436F1F4C0909001D090910108
:10F64000E0909201F0909301D701C601B695A7957D
:10F650009795879544D466DDD701C6010296A11D12
:10F66000B11D8093900190939101A0939201B0936A
:10F67000930104C08B3111F08FE354DD8092E900D7
:10F680009091E8008091E8008E778093E80095FFE4
:10F6900004C010C08EB38823C1F08091E80080FFC1
:10F6A000F9CF8091E8008E778093E80003C08EB395
:10F6B000882359F08091E80080FFF9CF2092E9007B
:10F6C0008091E8008B778093E800EED342DD809153
:10F6D0008E0190918F01009709F487CD28E088E191
:10F6E00090E00FB6F894A895809360000FBE209329
:10F6F00060008091E00081608093E000F894FFCF8B
:10F700008898E0E0F0E0099580E090E029960FB657
:10F71000F894DEBF0FBECDBFDF91CF911F910F9147
:10F72000FF90EF90DF90CF90BF90AF909F908F9021
:10F730007F906F905F904F903F902F90089582E060
:10F7400061EC42E064D183E061E842E160D184E0B1
:10F7500060E842E15CC180919801982F9F779132D7
:10F7600049F5909199019032A1F0913219F5813AC1
:10F7700009F58091E800877F8093E80088E091E0B8
:10F7800067E070E0A4D08091E8008B778093E80078
:10F790000895813279F48091E800877F8093E800B2
:10F7A00088E091E067E070E0EBD08091E8008E7730
:10F7B0008093E8000895923029F0933041F0913021
:10F7C00061F410C08EE390E02DE331E01EC0882389
:10F7D00071F0813089F08230A1F080E090E020E08B
:10F7E00030E013C082E190E02BE731E00EC084E00E
:10F7F00090E029E331E009C088E190E028E930EFAA
:10F8000004C088E290E02FE031E0FA0131832083E8
:10F810000895DC01CB0107B600FCFDCFF999FECFBE
:10F8200023E0FC01A0935B0020935700E89507B606
:10F8300000FCFDCF81E180935700E8950895DC013D
:10F84000CB0107B600FCFDCFF999FECF25E0FC0106
:10F85000A0935B0020935700E89507B600FCFDCF0E
:10F8600081E180935700E8950895DC01CB0107B64C
:10F8700000FCFDCFF999FECF21E00A01FC01A09325
:10F880005B0020935700E8951124089521E2FC01C4
:10F89000209357008491089529E0FC01209357009C
:10F8A00084910895E1E0F0E089E08093570084912D
:10F8B000089507B600FCFDCFF999FECF809599E039
:10F8C000E1E0F0E0082E90935700E895089520912C
:10F8D0009E0130919F012617370720F4B901FC01E2
:10F8E00020E035C061157105D1F72091E8002E7731
:10F8F0002093E800F4CF8EB38823F1F18530C1F175
:10F900008091E80083FD36C08091E80082FD2AC026
:10F910008091E80080FF1BC08091F2009091F3007D
:10F9200006C021912093F10061507040019661154D
:10F93000710519F088309105A0F321E08830910518
:10F9400009F020E08091E8008E778093E80061154F
:10F95000710589F6222379F605C08EB3882361F0FC
:10F96000853061F08091E80082FFF7CF80E0089554
:10F9700083E0089581E0089582E0089583E008958A
:10F980006115710529F42091E8002B772093E80098
:10F99000382F292F25C08EB38823A9F1853079F11E
:10F9A0008091E80083FD2DC08091E80082FFF3CFB5
:10F9B000E32FF22F08C08091F10081933E2F2F2F6B
:10F9C0006150704041F03E2F2F2F8091F2009091B6
:10F9D000F300009781F78091E8008B778093E8002F
:10F9E00061157105C1F605C08EB3882361F08530BD
:10F9F00061F08091E80080FFF7CF80E0089583E018
:10FA0000089581E0089582E0089583E008958F705D
:10FA10008093E900EBEEF0E0808181608083EDEE81
:10FA2000F0E010826093EC0040838091EE00881F2C
:10FA30008827881F08958091980187FF11C003C00F
:10FA40008EB38823B1F08091E80082FFF9CF8091D6
:10FA5000E8008B778093E80008958EB3882349F0FF
:10FA60008091E80080FFF9CF8091E8008E77809345
:10FA7000E80008950F931F93CF93DF9349D050D0A0
:10FA8000C8EDD0E088818F778883888180688883FB
:10FA900088818F7D8883E7EDF0E0808180688083B6
:10FAA00019BC1EBA1092960100EE10E0F801808198
:10FAB0008B7F808388818160888380E060E042E082
:10FAC000A6DFE1EEF0E080818E7F8083E2EEF0E061
:10FAD000808181608083808188608083F80180815B
:10FAE0008E7F8083888180618883DF91CF911F9191
:10FAF0000F910895E8EDF0E080818F7E8083E7ED3F
:10FB0000F0E080818160808381E080939701B2CFB3
:10FB1000E8EDF0E080818C7F80831092E200089510
:10FB20001092DA001092E10008951F920F920FB622
:10FB30000F920BB60F9211242F933F934F935F9325
:10FB40006F937F938F939F93AF93BF93EF93FF93A5
:10FB50008091DA0080FF1BC08091D80080FF17C021
:10FB60008091DA008E7F8093DA008091D90080FF47
:10FB70000BC084E189BD86E189BD09B400FEFDCFDB
:10FB800081E08EBB90D103C019BC1EBA8CD180918C
:10FB9000E10080FF17C08091E20080FF13C08091D8
:10FBA000E2008E7F8093E2008091E200806180938A
:10FBB000E2008091D80080628093D80019BC85E073
:10FBC0008EBB71D18091E10084FF2CC08091E20056
:10FBD00084FF28C084E189BD86E189BD09B400FEA7
:10FBE000FDCF8091D8008F7D8093D8008091E10077
:10FBF0008F7E8093E1008091E2008F7E8093E2000F
:10FC00008091E20081608093E200809196018823D8
:10FC100021F48091E30087FF02C084E001C081E00D
:10FC20008EBB41D18091E10083FF21C08091E20031
:10FC300083FF1DC08091E100877F8093E10082E017
:10FC40008EBB109296018091E1008E7F8093E1003F
:10FC50008091E2008E7F8093E2008091E2008061DB
:10FC60008093E20080E060E042E0D1DE1CD1FF91B1
:10FC7000EF91BF91AF919F918F917F916F915F9124
:10FC80004F913F912F910F900BBE0F900FBE0F9091
:10FC90001F9018951F93CF93DF9300D0CDB7DEB799
:10FCA00088E0E8E9F1E09091F10091938150D9F773
:10FCB00052DD8091E80083FFE2C08091980190912D
:10FCC0009901953009F46CC0963040F4913069F197
:10FCD000913070F0933009F0D2C027C0983009F409
:10FCE000A1C0993009F4B0C0963009F0C8C07AC0FC
:10FCF000803881F0823809F0C2C080919C018F70F9
:10FD00008093E9009091EB0081E095FF80E01092F4
:10FD1000E90001C080E09091E800977F9093E800AF
:10FD20008093F1001092F10088C0882319F082308E
:10FD300009F0A5C08F71823009F0A1C080919A01AD
:10FD4000882341F520919C012F7009F498C02093DD
:10FD5000E9008091EB0080FF1DC080919901833004
:10FD600021F48091EB00806213C08091EB008061F0
:10FD70008093EB0081E090E002C0880F991F2A95E4
:10FD8000E2F78093EA001092EA008091EB0088602D
:10FD90008093EB001092E9008091E800877F50C0CB
:10FDA000882309F06CC010919A011F778091E300BD
:10FDB0008078812B8093E3008091E800877F809397
:10FDC000E80039DE8091E80080FFFCCF8091E300FD
:10FDD00080688093E300112311F083E001C082E08A
:10FDE0008EBB4DC08058823008F049C080919A0186
:10FDF00090919B0160919C01AE014F5F5F4FDBDCF6
:10FE0000BC01009709F43BC08091E800877F809394
:10FE1000E80089819A815BDD8091E8008B7780938F
:10FE2000E8002DC0803859F58091E800877F8093E5
:10FE3000E800809196018093F1008091E8008E7730
:10FE40008093E800F8DD1BC08823C9F490919A01E3
:10FE50009230A8F48091E800877F8093E800909327
:10FE60009601E9DD80919601882321F48091E300D9
:10FE700087FF02C084E001C081E08EBB60DC80911E
:10FE8000E80083FF0AC08091E800877F8093E80044
:10FE90008091EB0080628093EB000F900F90DF91D8
:10FEA000CF911F9108950895CF938EB38823A9F021
:10FEB0008091E9008F709091EC0090FF02C0C0E843
:10FEC00001C0C0E0C82B1092E9008091E80083FFD8
:10FED00001C0E0DECF70C093E900CF910895F99999
:10FEE000FECF92BD81BDF89A992780B50895262F3F
:10FEF000F999FECF1FBA92BD81BD20BD0FB6F8940F
:0EFF0000FA9AF99A0FBE01960895F894FFCF71
:10FF0E004C554641434443000000000000000828C1
:10FF1E00034C0055004600410020004300440043BE
:10FF2E0000200042006F006F0074006C006F0061D3
:10FF3E000064006500720000000403090409023E1B
:10FF4E0000020100803209040000010202010005D6
:10FF5E002400100104240206052406000107058270
:10FF6E00030800FF09040100020A0000000705044F
:10FF7E000210000507058302100005120110010290
:0EFF8E00000008EB034A200001010200010000
:10FFA00038CC4DCC62CC72CC77CC7CCC82CC089552
:08FFB0000895089508950895D5
:10FFE000DFCFDFCFDFCFDFCFDFCFDFCFDFCFDFCFA1
:08FFF000DFCFDFCFDFCFDFCF51
:08FFF80000F00100B1DFFBDCA9
:040000031000F000F9
:00000001FF
