:10F000006AC0000083C0000081C000007FC0000013
:10F010007DC000007BC0000079C0000077C0000008
:10F0200075C0000073C00000BEC400006FC00000C7
:10F030006DC000006BC0000069C0000067C0000028
:10F0400065C0000063C0000061C000005FC0000038
:10F050005DC000005BC0000059C0000057C0000048
:10F0600055C0000053C0000051C000004FC0000058
:10F070004DC000004BC0000049C0000047C0000068
:10F0800045C0000043C0000041C000003FC0000078
:10F090003DC000003BC000003C03440079006E000E
:10F0A00061006D006900630020005000650072007F
:10F0B000630065007000740069006F006E0020003E
:10F0C00042006F006F0074006C006F00610064000C
:10F0D00065007200000011241FBECFEFD0E1DEBF3B
:10F0E000CDBF11E0A0E0B1E0E8ECFEEF02C005907A
:10F0F0000D92A439B107D9F711E0A4E9B1E001C03C
:10F100001D92A63AB107E1F749D0DCC679CF84E079
:10F110008093E9000DC08091E8008B778093E80030
:10F1200003C08EB3882359F08091E80082FFF9CFA5
:10F130008091E80085FFEFCF8091F100089580E095
:10F14000089593E09093E9009091E80095FD0DC03B
:10F150009091E8009E779093E80003C09EB39923B6
:10F1600031F09091E80090FFF9CF8093F10008957D
:10F1700080919A0190919B01019690939B018093BD
:10F180009A01292F97FF03C03EEF391B232F220F2F
:10F19000281710F446980895469A08952F923F92A2
:10F1A0004F925F926F927F928F929F92AF92BF9297
:10F1B000CF92DF92EF92FF920F931F93CF93DF9343
:10F1C000CDB7DEB729970FB6F894DEBF0FBECDBF1F
:10F1D0008EEF80BB889A84B7877F84BF88E10FB6A3
:10F1E000F89480936000109260000FBE789971C20D
:10F1F00080E487B990E080E80FB6F89480936100CE
:10F20000909361000FBE81E085BF82E085BFB5D3DA
:10F210007894E4E02E2EF3E08F2E01E0A5E03A2E64
:10F22000B9E09B2E3DC22092E9008091E80082FF68
:10F2300035C26DDF282F853449F48DE082DF81E00F
:10F2400090E0909395018093940101C2843511F46C
:10F250005EDFD7C18C3409F4D4C1803509F4D1C143
:10F26000843711F484E487C0813611F489E5EEC156
:10F27000813419F54CDF182F4ADF282F30E0220F98
:10F28000331FA901662757FD6095762F110F1C8348
:10F290001B822B813C81C901AA2797FDA095BA2F1B
:10F2A000482B592B6A2B7B2B409396015093970147
:10F2B0006093980170939901A4C1803711F483E59C
:10F2C000C5C1833561F460E0C62E61E0D62E17E03B
:10F2D000F60181916F0135DF1150D1F7B8C1863544
:10F2E00021F481E32EDF80E3B1C1833731F482E87A
:10F2F00028DF86E926DF8EE1A9C18536A9F4E0E0A2
:10F30000F0E080925700E89507B600FCFDCF309200
:10F310005700E89507B600FCFDCFE050FF4F20EF07
:10F32000E030F20771F76DC18C3649F4F0DE80955C
:10F33000E1E0F0E0082E90925700E89562C1823734
:10F3400019F4E1E0F0E00EC0863419F4E0E0F0E0FA
:10F3500009C08E3419F4E3E0F0E004C0813531F4E3
:10F36000E2E0F0E090925700849170C1823631F46F
:10F3700089E5E7DE81E0E5DE80E068C1823419F0EE
:10F38000873609F0DBC02887C2DE182FC0DEA82E22
:10F39000BEDE898785542885823008F056C11A83DD
:10F3A0001982BB2489819A81A82AB92A273609F0B3
:10F3B00045C091E190935700E89510E03AC0C090A5
:10F3C0009601D0909701E0909801F09099012985DD
:10F3D0002634B9F4E12FF0E0EC29FD298491B1DE67
:10F3E000112369F0D701C6010296A11DB11D8093BA
:10F3F000960190939701A0939801B09399011027DB
:10F4000015C0D701C601B695A7959795879544D5A0
:10F4100098DED701C6010296A11DB11D8093960109
:10F4200090939701A0939801B09399010894A10833
:10F43000B108A114B10409F0C2CF09C140909601EE
:10F4400050909701609098017090990139853634F9
:10F4500009F062C0F20180925700E89507B600FCFF
:10F46000FDCF5AC02985263481F53F81332339F1F8
:10F47000C0909601D09097014ADE8E831D82812F25
:10F4800090E02D813E81822B932BF6010C0100939D
:10F490005700E89511248091960190919701A091D1
:10F4A0009801B09199010296A11DB11D809396011A
:10F4B00090939701A0939801B093990102C027DE21
:10F4C000182F2F8120272F8323C0C0909601D09022
:10F4D0009701E0909801F0909901F694E794D79401
:10F4E000C79415DE682FC601DFD4809196019091F4
:10F4F0009701A0919801B09199010296A11DB11DAB
:10F500008093960190939701A0939801B0939901ED
:10F510000894A108B10802C010E01F82A114B10430
:10F5200009F0A0CF3985363409F06BC0F201309272
:10F530005700E89507B600FCFDCF63C0833469F43B
:10F54000C0909601D0909701E2DD90E0F6010C01A9
:10F5500000935700E895112454C08336A1F4C0905D
:10F560009601D0909701E0909801F0909901CFDD3D
:10F57000F601E16090E00C0100935700E89511243A
:10F58000D701C60133C08D3659F4E0919601F09150
:10F59000970130925700E89507B600FCFDCF31C0C7
:10F5A000823551F4E0919601F0919701C590D49085
:10F5B0008D2DC7DD8C2D4AC0843429F5C09096016D
:10F5C000D0909701E0909801F0909901F694E7941B
:10F5D000D794C7949CDD682FC60166D480919601AC
:10F5E00090919701A0919801B09199010296A11D67
:10F5F000B11D8093960190939701A0939801B093C9
:10F6000099018DE023C08436F1F4C0909601D0902A
:10F610009701E0909801F0909901D701C601B69545
:10F62000A7959795879538D48CDDD701C6010296AA
:10F63000A11DB11D8093960190939701A09398010D
:10F64000B093990104C08B3111F08FE37ADD809281
:10F65000E9009091E8008091E8008E778093E800BF
:10F6600095FF04C010C08EB38823C1F08091E800DC
:10F6700080FFF9CF8091E8008E778093E80003C087
:10F680008EB3882359F08091E80080FFF9CF209253
:10F69000E9008091E8008B778093E800E2D368DD91
:10F6A0008091940190919501009709F4BCCD28E0D8
:10F6B00088E190E00FB6F894A895809360000FBEA3
:10F6C000209360008091E00081608093E000F894D6
:10F6D000FFCF8898E0E0F0E0099580E090E029967F
:10F6E0000FB6F894DEBF0FBECDBFDF91CF911F9153
:10F6F0000F91FF90EF90DF90CF90BF90AF909F90D1
:10F700008F907F906F905F904F903F902F900895D3
:10F7100082E061EC42E0BED083E061E842E1BAD031
:10F7200084E060E842E1B6C080919E01982F9F7707
:10F73000913249F590919F019032A1F0913219F5E3
:10F74000813A09F58091E800877F8093E80088E09E
:10F7500091E067E070E0D8D18091E8008B778093EA
:10F76000E8000895813279F48091E800877F8093E2
:10F77000E80088E091E067E070E01FD28091E80047
:10F780008E778093E8000895923029F0933041F00D
:10F79000913061F410C08EE390E023E431E01EC0AC
:10F7A000882371F0813089F08230A1F080E090E010
:10F7B00020E030E013C082E190E021E831E00EC0AB
:10F7C00084E090E02FE331E009C08EE290E02FE08A
:10F7D00031E004C08CE390E028E930EFFA01318396
:10F7E00020830895DC01CB0107B600FCFDCFF99919
:10F7F000FECF23E0FC0120935700E89507B600FCFC
:10F80000FDCF81E180935700E8950895DC01CB019D
:10F8100007B600FCFDCFF999FECF25E0FC0120934F
:10F820005700E89507B600FCFDCF81E180935700B3
:10F83000E8950895DC01CB0107B600FCFDCFF999EE
:10F84000FECF21E0FC010A0120935700E895112426
:10F85000089521E2FC01209357008491089529E046
:10F86000FC012093570084910895E1E0F0E089E0E5
:10F87000809357008491089507B600FCFDCFF99955
:10F88000FECF809599E0E1E0F0E0082E90935700DC
:10F89000E89508958F708093E900EBEEF0E08081A9
:10F8A00081608083EDEEF0E010826093EC00408395
:10F8B0008091EE00881F8827881F089580919E01FF
:10F8C00087FF11C003C08EB38823B1F08091E80098
:10F8D00082FFF9CF8091E8008B778093E80008954C
:10F8E0008EB3882349F08091E80080FFF9CF8091A2
:10F8F000E8008E778093E80008950F931F93CF93CD
:10F90000DF9344D04BD0C8EDD0E088818F778883D7
:10F9100088818068888388818F7D8883E7EDF0E027
:10F9200080818068808319BC1EBA10929C0100EE11
:10F9300010E0F80180818B7F8083888181608883DB
:10F9400080E060E042E0A6DFE1EEF0E080818E7FC3
:10F950008083E2EEF0E08081816080838081886036
:10F960008083F80180818E7F808388818061888395
:10F97000DF91CF911F910F910895E7EDF0E0808125
:10F980008160808381E080939D01B7CFE8EDF0E056
:10F9900080818C7F80831092E20008951092DA00BB
:10F9A0001092E10008951F920F920FB60F9211244A
:10F9B0002F933F934F935F936F937F938F939F9377
:10F9C000AF93BF93EF93FF938091DA0080FF1BC04A
:10F9D0008091D80080FF17C08091DA008E7F8093DD
:10F9E000DA008091D90080FF0BC088E189BD8AE1EF
:10F9F00089BD09B400FEFDCF81E08EBB31D203C0CA
:10FA000019BC1EBA2DD28091E10080FF17C08091F1
:10FA1000E20080FF13C08091E2008E7F8093E200BD
:10FA20008091E20080618093E2008091D800806242
:10FA30008093D80019BC85E08EBB12D28091E10082
:10FA400084FF2CC08091E20084FF28C088E189BD3A
:10FA50008AE189BD09B400FEFDCF8091D8008F7D79
:10FA60008093D8008091E1008F7E8093E1008091A7
:10FA7000E2008F7E8093E2008091E20081608093BB
:10FA8000E20080919C01882321F48091E30087FFAC
:10FA900002C084E001C081E08EBBE2D18091E10030
:10FAA00083FF21C08091E20083FF1DC08091E100AF
:10FAB000877F8093E10082E08EBB10929C01809151
:10FAC000E1008E7F8093E1008091E2008E7F809341
:10FAD000E2008091E20080618093E20080E060E0DB
:10FAE00042E0D8DEBDD1FF91EF91BF91AF919F91E0
:10FAF0008F917F916F915F914F913F912F910F90D7
:10FB00000FBE0F901F9018952091A4013091A50170
:10FB10002617370720F4B901FC0120E035C0611534
:10FB20007105D1F72091E8002E772093E800F4CFFB
:10FB30008EB38823F1F18530C1F18091E80083FD17
:10FB400036C08091E80082FD2AC08091E80080FFE5
:10FB50001BC08091F2009091F30006C02191209388
:10FB6000F1006150704001966115710519F08830FF
:10FB70009105A0F321E08830910509F020E0809103
:10FB8000E8008E778093E8006115710589F62223DD
:10FB900079F605C08EB3882361F0853061F08091DD
:10FBA000E80082FFF7CF80E0089583E0089581E0C8
:10FBB000089582E0089583E008956115710529F4A0
:10FBC0002091E8002B772093E800382F292F25C0BB
:10FBD0008EB38823A9F1853079F18091E80083FD07
:10FBE0002DC08091E80082FFF3CFE32FF22F08C0F1
:10FBF0008091F10081933E2F2F2F6150704041F092
:10FC00003E2F2F2F8091F2009091F300009781F703
:10FC10008091E8008B778093E80061157105C1F64B
:10FC200005C08EB3882361F0853061F08091E800D3
:10FC300080FFF7CF80E0089583E0089581E0089584
:10FC400082E0089583E008950F931F93CF93DF938D
:10FC500000D0CDB7DEB788E0EEE9F1E09091F10099
:10FC600091938150D9F760DD8091E80083FFE3C074
:10FC700080919E0190919F01953009F46CC096305F
:10FC800040F4913069F1913070F0933009F0D3C0B5
:10FC900027C0983009F4A2C0993009F4B1C0963059
:10FCA00009F0C9C07BC0803881F0823809F0C3C038
:10FCB0008091A2018F708093E9009091EB0081E028
:10FCC00095FF80E01092E90001C080E09091E8008B
:10FCD000977F9093E8008093F1001092F10089C023
:10FCE000882319F0823009F0A6C08F71823009F0A4
:10FCF000A2C08091A001882341F52091A2012F701C
:10FD000009F499C02093E9008091EB0080FF1DC0A9
:10FD100080919F01833021F48091EB00806213C0B9
:10FD20008091EB0080618093EB0081E090E002C065
:10FD3000880F991F2A95E2F78093EA001092EA0053
:10FD40008091EB0088608093EB001092E900809135
:10FD5000E800877F51C0882309F06DC01091A00191
:10FD60001F770FB7F8948091E800877F8093E800B1
:10FD7000A5DD8091E80080FFFCCF8091E3008078D2
:10FD8000812B8093E30080688093E300112311F0BE
:10FD900083E001C082E08EBB0FBF4DC0805882302F
:10FDA00008F049C08091A0019091A1016091A20149
:10FDB000AE014F5F5F4FE8DCBC01009709F43BC028
:10FDC0008091E800877F8093E80089819A819CDE9A
:10FDD0008091E8008B778093E8002DC0803859F53A
:10FDE0008091E800877F8093E80080919C01809358
:10FDF000F1008091E8008E778093E8005FDD1BC002
:10FE00008823C9F49091A0019230A8F48091E80071
:10FE1000877F8093E80090939C0150DD80919C0146
:10FE2000882321F48091E30087FF02C084E001C0B1
:10FE300081E08EBB6DDC8091E80083FF0AC0809179
:10FE4000EB0080628093EB008091E800877F8093D5
:10FE5000E8000F900F90DF91CF911F910F910895BF
:10FE60000895CF938EB38823A9F08091E9008F7015
:10FE70009091EC0090FF02C0C0E801C0C0E0C82B28
:10FE80001092E9008091E80083FF01C0DDDECF70B1
:10FE9000C093E900CF910895F999FECF92BD81BD3D
:10FEA000F89A992780B50895262FF999FECF1FBAA1
:10FEB00092BD81BD20BD0FB6F894FA9AF99A0FBE93
:08FEC00001960895F894FFCFAC
:10FEC8004C55464143444300000000000000082E02
:10FED80003440079006E0061006D00690063002032
:10FEE80000500065007200630065007000740069CE
:10FEF800006F006E0020004C004C0043000000041E
:10FF080003090409023E0002010080FA0904000006
:10FF18000102020100052400100104240206052440
:10FF2800060001070582030800FF09040100020A10
:10FF380000000007050402100005070583021000F1
:10FF4800051201100102000008EB034A200001011C
:04FF580002000100A2
:10FFA00021CC34CC47CC55CC5ACC5FCC65CC089511
:08FFB0000895089508950895D5
:10FFE000DFCFDFCFDFCFDFCFDFCFDFCFDFCFDFCFA1
:08FFF000DFCFDFCFDFCFDFCF51
:08FFF80000F00000B1DFFBDCAA
:040000030000F00009
:00000001FF
