:020000021000EC
:10E0000058C0000091C000008FC000008DC000000B
:10E010008BC0000089C0000087C0000085C00000E0
:10E0200083C0000081C0000047C500007DC0000023
:10E030007BC0000079C0000077C0000075C0000000
:10E0400073C0000071C000006FC000006DC0000010
:10E0500006C2000069C0000067C0000065C0000083
:10E0600063C0000061C000005FC000005DC0000030
:10E070005BC0000059C0000057C0000055C0000040
:10E0800053C0000051C000004FC000004DC0000050
:10E090004BC0000049C00000180344006500610047
:10E0A0006E002000430061006D0065007200610099
:10E0B000000011241FBECFEFD0E2DEBFCDBF04B6FB
:10E0C00003FE1AC08091890190918A012CED82345F
:10E0D000920791F484B7877F84BF88E10FB6F894E4
:10E0E00080936000109260000FBE10928A0110921F
:10E0F0008901E0E0F0E0099511E0A0E0B1E0E6E997
:10E10000FEEE01E00BBF02C007900D92AC36B107E6
:10E11000D9F71BBE11E0ACE6B1E001C01D92A938F1
:10E12000B107E1F756D1B5C66BCF18C02091F20008
:10E130003091F3002115310571F49091E8009B7F37
:10E140009093E80003C09EB3992351F09091E800AA
:10E1500092FFF9CF02C09091F1008150882331F7EE
:10E160000895309174012091730190917201809112
:10E1700071019093770180937801C901909379019F
:10E1800080937A0108951F93CF93DF9300D000D03E
:10E1900000D0CDB7DEB780917E018823D9F0809181
:10E1A0006F01843049F480917001882339F48091A3
:10E1B00071018F3F19F40EC0853061F08AE08093C1
:10E1C000070183E080937D018091EB008062809362
:10E1D000EB00F5C080916F01843009F459C085309F
:10E1E00030F4813059F0833009F0E9C022C0853025
:10E1F00009F4B2C0863009F0E2C0D5C010917001B8
:10E20000123008F0DCC0ADDF112389F48091770172
:10E2100090917801A0917B01B0E023E0FC01A093F4
:10E220005B0020935700E89507B600FCFDCF85E022
:10E2300008C080917001882311F0823029F491DFA9
:10E2400089E080930701BBC0813009F0B8C080E04D
:10E2500090E0DC01ABBFFC0127912F3F69F0A09358
:10E260007B0190937801809377018AE08093070186
:10E2700085E080937D01A3C00196A11DB11D803072
:10E2800020EE920721E0A20720E0B20719F797C01D
:10E2900080917001833071F581E080936C018091F1
:10E2A00075019091760120917101009761F0213004
:10E2B00009F085C0809174019091730190936E0173
:10E2C00080936D017CC0222391F482E49CED9093B5
:10E2D0008A01809389012CE088E190E00FB6F894E0
:10E2E000A895809360000FBE2093600068C01092D4
:10E2F000060165C0882309F062C0809171018F3FDB
:10E3000009F05DC080E090E0DC0133E025E0FC0135
:10E31000A0935B0030935700E89507B600FCFDCF53
:10E32000FC01A0935B0020935700E89507B600FC22
:10E33000FDCF80509F4FAF4FBF4F803040EE9407CE
:10E3400041E0A40740E0B40711F781E18093570052
:10E35000E89510927E0133C0DE011496E0E0F1E012
:10E3600083E001900D928150E1F7DE011196E3E028
:10E37000F1E083E001900D928150E1F7809171010D
:10E3800090917001992329F4FE01E80FF11D848119
:10E3900007C09130A1F4FE01BF97E80FF11D808105
:10E3A00080937C010CC080917001833041F4809196
:10E3B0007101882321F48091720180937B0126965C
:10E3C0000FB6F894DEBF0FBECDBFDF91CF911F9186
:10E3D000089584B7877F84BF88E10FB6F89480934F
:10E3E0006000109260000FBE90E080E80FB6F894D5
:10E3F00080936100909361000FBEC1E0C5BF82E0D1
:10E4000085BF44D38AB1806F8AB98BB18F708BB9C5
:10E41000C0936F0083E0809381008BB18F70806127
:10E420008BB9789401C016D5809106018823D9F75D
:10E4300080916C018823B9F7D1D28AB18F708AB9E3
:10E440008BB18F708BB910926F001092810081E0B8
:10E4500085BF15BEE0916D01F0916E0109951F9287
:10E460000F920FB60F9211248F9380E389B98F9189
:10E470000F900FBE0F901F901895CF92DF92EF92E2
:10E48000FF920F931F93CF93DF93809181018F773A
:10E49000813209F0DEC180E389B9809187019091D2
:10E4A0008801909376018093750180918201833079
:10E4B00009F499C1843030F4813071F0823009F070
:10E4C000C8C1FBC0853009F4ACC1853008F4A1C1D6
:10E4D000863009F0BEC1B4C18091E800877F809387
:10E4E000E80080916C01882319F04DDE10926C01D8
:10E4F0008091750190917601009729F42BC02EB37D
:10E50000222309F4A6C12091E80022FFF8CF209130
:10E51000F10020936F01019790937601809375012C
:10E52000E0E7F1E020E00FC08091F100819380915D
:10E530007501909176010197909376018093750112
:10E540002F5F253031F08091F2009091F300009719
:10E5500059F719DE80910701853009F0AAC0809132
:10E56000750190917601009721F482E08093070174
:10E57000A0C08AE1DADD0091770110917801802F47
:10E580008F71D3DDC0917901D0917A012196C01BA2
:10E59000D10B80917001882309F087C0D695C7956B
:10E5A000A80160917B0170E08A019B01A0E0CC246E
:10E5B000C394E5E0DE2EB3E043C08091F200909179
:10E5C000F300009771F48091E8008B7F8093E8005E
:10E5D00004C08EB3882309F43CC18091E80082FF17
:10E5E000F8CF21978091F100E82E8091F100F82E6C
:10E5F0000701FA0160935B00C0925700E89511246F
:10E60000AF5F4E5F5F4F6F4F7F4FA03811F0209785
:10E61000B9F4F80120935B00D0925700E89507B653
:10E6200000FCFDCF209761F0FA0160935B00B0938E
:10E630005700E89507B600FCFDCF8A019B01A0E0DA
:10E64000209709F0BACF8091790190917A01909347
:10E6500078018093770181E180935700E89527C086
:10E660008091F2009091F300009771F48091E8009E
:10E670008B7F8093E80004C08EB3882309F4E9C03F
:10E680008091E80082FFF8CF6091F10080917701DE
:10E6900090917801F0D38091770190917801019663
:10E6A000909378018093770121972097C9F680E1B4
:10E6B0003CDD8091E8008B7FC0C08091E800877FBF
:10E6C0008093E80004C08EB3882309F4C2C080910F
:10E6D000E80080FFF8CF80910701893081F08A300F
:10E6E00059F480917001813039F4909177018091D3
:10E6F00078019093F1009CC080917C0199C0809139
:10E700007701909178010091790110917A010F5F62
:10E710001F4F081B190B209170012223B1F516958C
:10E720000795AC0160917B0170E023C08091F200FD
:10E730009091F3008032910571F48091E8008E7F12
:10E740008093E80004C08EB3882309F482C08091CE
:10E75000E80080FFF8CF6BBFFA0187919691809314
:10E76000F1009093F1004E5F5F4F6F4F7F4F01506C
:10E77000104001151105D1F68091790190917A012F
:10E7800090937801809377012AC0223041F524C00C
:10E790008091F2009091F3008032910571F48091A4
:10E7A000E8008E7F8093E80004C08EB3882309F4CC
:10E7B00050C08091E80080FFF8CFC0917701D091E0
:10E7C0007801CE0150D38093F1002196D093780147
:10E7D000C09377010150104001151105C9F682E080
:10E7E0008093070127C08091E800877F8093E8002D
:10E7F00080917D018093F1001092F1001092F10060
:10E800001092F100809107018093F1001092F100C5
:10E8100011C08091E800877F8093E80010927D010D
:10E8200017C08091E800877F8093E80080910701FE
:10E830008093F1008091E8008E7F8093E80008C00B
:10E840008091E800877F8093E80082E08093070151
:10E85000A6D0DF91CF911F910F91FF90EF90DF90A5
:10E86000CF900895923029F0933041F0913061F4C7
:10E8700010C08BE190E026E331E01EC0882371F0E8
:10E88000813089F08230A1F080E090E020E030E03B
:10E8900013C082E190E021E531E00EC084E090E019
:10E8A00022E331E009C088E190E028E930EE04C0BD
:10E8B00088E290E028E031E0FA0131832083089576
:10E8C000DC01CB0107B600FCFDCFF999FECF23E0B8
:10E8D000FC01A0935B0020935700E89507B600FC6D
:10E8E000FDCF81E180935700E8950895DC01CB01CD
:10E8F00007B600FCFDCFF999FECF25E0FC01A093FF
:10E900005B0020935700E89507B600FCFDCF81E13E
:10E9100080935700E8950895DC01CB0107B600FC11
:10E92000FDCFF999FECF21E00A01FC01A0935B0025
:10E9300020935700E8951124089521E2FC012093CB
:10E9400057008491089529E0FC0120935700849199
:10E950000895E1E0F0E089E0809357008491089504
:10E9600007B600FCFDCFF999FECF809599E0E1E074
:10E97000F0E0082E90935700E8950895EBEEF0E054
:10E98000808181608083EDEEF0E010826093EC0086
:10E9900040838091EE00881F8827881F089580910A
:10E9A000810187FF11C003C08EB38823B1F080912D
:10E9B000E80082FFF9CF8091E8008B7F8093E80028
:10E9C00008958EB3882349F08091E80080FFF9CF45
:10E9D0008091E8008E7F8093E800089560D067D032
:10E9E000E0EEF0E0808181608083E8EDF0E08081FE
:10E9F0008F77808319BCA7EDB0E08C918E7F8C93CC
:10EA000080818F7E80831092800108950F931F93E1
:10EA1000CF93DF9344D04BD0C8EDD0E088818F777F
:10EA2000888388818068888388818F7D8883E7EDEB
:10EA3000F0E080818068808319BC1EBA10927F014B
:10EA400000EE10E0F80180818B7F808388818160F7
:10EA5000888380E060E042E291DFE1EEF0E08081D7
:10EA60008E7F8083E2EEF0E0808181608083808110
:10EA700088608083F80180818E7F808388818061B7
:10EA80008883DF91CF911F910F910895E7EDF0E01A
:10EA900080818160808381E080938001B7CFE8ED41
:10EAA000F0E080818C7F80831092E20008951092C4
:10EAB000DA001092E10008951F920F920FB60F92A4
:10EAC0000BB60F9211242F933F934F935F936F9345
:10EAD0007F938F939F93AF93BF93EF93FF93809117
:10EAE000DA0080FF1BC08091D80080FF17C08091A2
:10EAF000DA008E7F8093DA008091D90080FF0BC00E
:10EB00008CE089BD8EE089BD09B400FEFDCF81E0B7
:10EB10008EBB9FD103C019BC1EBA9BD18091E1006E
:10EB200080FF17C08091E20080FF13C08091E20057
:10EB30008E7F8093E2008091E20080618093E2000A
:10EB40008091D80080628093D80019BC85E08EBB8C
:10EB500080D18091E10084FF2CC08091E20084FF8D
:10EB600028C08CE089BD8EE089BD09B400FEFDCFD0
:10EB70008091D8008F7D8093D8008091E1008F7EB6
:10EB80008093E1008091E2008F7E8093E20080918B
:10EB9000E20081608093E20080917F01882321F46C
:10EBA0008091E30087FF02C084E001C081E08EBB5A
:10EBB00050D18091E10083FF21C08091E20083FF6A
:10EBC0001DC08091E100877F8093E10082E08EBBD1
:10EBD00010927F018091E1008E7F8093E10080910F
:10EBE000E2008E7F8093E2008091E200806180935A
:10EBF000E20080E060E042E2C1DE2BD1FF91EF91C4
:10EC0000BF91AF919F918F917F916F915F914F9144
:10EC10003F912F910F900BBE0F900FBE0F901F9042
:10EC2000189520918701309188012617370720F425
:10EC3000B901FC0120E035C061157105D1F72091C3
:10EC4000E8002E7F2093E800F4CF8EB38823F1F103
:10EC50008530C1F18091E80083FD36C08091E800E5
:10EC600082FD2AC08091E80080FF1BC08091F200E5
:10EC70009091F30006C021912093F1006150704003
:10EC800001966115710519F080329105A0F321E01C
:10EC90008032910509F020E08091E8008E7F80931A
:10ECA000E8006115710589F6222379F605C08EB357
:10ECB000882361F0853061F08091E80082FFF7CF12
:10ECC00080E0089583E0089581E0089582E008954A
:10ECD00083E008950F931F93CF93DF9300D0CDB7B8
:10ECE000DEB780E0E1E8F1E09091F10091938F5F71
:10ECF0008830D1F7C2DB8091E80083FF95C0809116
:10ED0000810190918201963009F441C0973030F42E
:10ED1000992359F0953009F087C016C0983009F44E
:10ED200056C0993009F080C064C0803819F082382C
:10ED300009F07AC08091E800877F8093E800109204
:10ED4000F1001092F1004EC0882309F06DC01091BF
:10ED500083011F770FB7F8948091E800877F809335
:10ED6000E8001DDE8091E80080FFFCCF8091E30089
:10ED70008078812B8093E30080688093E3001123E7
:10ED800011F083E001C082E08EBB0FBF4DC0805800
:10ED9000823008F049C08091830190918401609194
:10EDA0008501AE014F5F5F4F5DDDBC01009709F447
:10EDB0003BC08091E800877F8093E80089819A8139
:10EDC00030DF8091E8008B7F8093E8002DC0803891
:10EDD00059F58091E800877F8093E80080917F015A
:10EDE0008093F1008091E8008E7F8093E800D7DD6A
:10EDF0001BC08823C9F4909183019230A8F48091BC
:10EE0000E800877F8093E80090937F01C8DD8091C0
:10EE10007F01882321F48091E30087FF02C084E012
:10EE200001C081E08EBB15D08091E80083FF0AC04D
:10EE30008091EB0080628093EB008091E800877FF7
:10EE40008093E8000F900F90DF91CF911F910F9169
:10EE5000089508958EB3882329F08091E80083FFF8
:10EE600001C038CF0895F999FECF92BD81BDF89ABF
:10EE7000992780B50895262FF999FECF1FBA92BD24
:10EE800081BD20BD0FB6F894FA9AF99A0FBE01968B
:06EE90000895F894FFCF85
:10EE960020DCFB1E9782010228034C005500460029
:10EEA60041002000440046005500200042006F004B
:10EEB6006F0074006C006F006100640065007200F2
:10EEC60000000403090409021B0001010080320945
:10EED60004000000FE0102000921030000000C10DE
:10EEE600011201100100000020EB03FB2F000001BE
:0CEEF60002000180080000000001000084
:10FFA0000C9460F40C9476F40C948CF40C949DF402
:10FFB0000C94A3F40C94A9F40C94B0F4089508954F
:06FFC00008950895089564
:10FFE000DFCFE0CFE1CFE2CFE3CFE4CFE5CFE6CF85
:08FFF000E6CFE6CFE6CFE6CF35
:08FFF80000E00100B1DFFBDCB9
:040000031000E00009
:00000001FF
