:10F0000058C0000071C000006FC000006DC000005B
:10F010006BC0000069C0000067C0000065C0000050
:10F0200063C0000061C00000C3C400005DC00000F8
:10F030005BC0000059C0000057C0000055C0000070
:10F0400053C0000051C000004FC000004DC0000080
:10F050004BC0000049C0000047C0000045C0000090
:10F0600043C0000041C000003FC000003DC00000A0
:10F070003BC0000039C0000037C0000035C00000B0
:10F0800033C0000031C000002FC000002DC00000C0
:10F090002BC0000029C00000180344006500610077
:10F0A0006E002000430061006D0065007200610089
:10F0B000000011241FBECFEFD0E1DEBFCDBF11E0B5
:10F0C000A0E0B1E0E2EDFEEF02C005900D92AE3897
:10F0D000B107D9F711E0AEE8B1E001C01D92A03A46
:10F0E000B107E1F75AD0F3C68BCF84E08093E900F3
:10F0F0000DC08091E8008B778093E80003C08EB349
:10F10000882359F08091E80082FFF9CF8091E800D0
:10F1100085FFEFCF8091F100089580E0089593E09E
:10F120009093E9009091E80095FD0DC09091E80062
:10F130009E779093E80003C09EB3992331F090919D
:10F14000E80090FFF9CF8093F10008958091940139
:10F150009091950101969093950180939401292FA8
:10F1600097FF03C03EEF391B232F220F281710F4FF
:10F17000469801C0469A80919401909195012DEF97
:10F18000883E920749F480918E0190918F010197FA
:10F1900090938F0180938E0108952F923F924F920A
:10F1A0005F926F927F928F929F92AF92BF92CF9217
:10F1B000DF92EF92FF920F931F93CF93DF93CDB720
:10F1C000DEB729970FB6F894DEBF0FBECDBF8EEF26
:10F1D00080BB80E487B9889A84B7877F84BF88E141
:10F1E0000FB6F89480936000109260000FBE90E01C
:10F1F00080E80FB6F89480936100909361000FBE91
:10F2000081E085BF82E085BFBDD37894789907C03F
:10F2100084E690E090938F0180938E013DC210921E
:10F220008F0110928E0138C22092E9008091E8008F
:10F2300082FF2FC25ADF282F853429F410928F01C4
:10F2400010928E0103C0843519F44FDF8DE0F9C1AF
:10F250008C34E1F38035D1F3843711F484E487C032
:10F26000813611F489E5EDC1813419F53EDF182F9F
:10F270003CDF282F30E0220F331FA901662757FDFE
:10F280006095762F110F1C831B822B813C81C90155
:10F29000AA2797FDA095BA2F482B592B6A2B7B2BB9
:10F2A0004093900150939101609392017093930168
:10F2B000CDCF803711F483E5C4C1833561F4E0E03C
:10F2C000CE2EE1E0DE2E17E0F60181916F0127DFFF
:10F2D0001150D1F7B7C1863521F481E320DF80E3F7
:10F2E000B0C1833731F482E81ADF86E918DF8EE196
:10F2F000A8C18536A9F4E0E0F0E080925700E895D7
:10F3000007B600FCFDCF30925700E89507B600FC29
:10F31000FDCFE050FF4F20EFE030F20771F796CFBE
:10F320008C3649F4E2DE8095E1E0F0E0082E909220
:10F330005700E8958BCF823719F4E1E0F0E00EC07A
:10F34000863419F4E0E0F0E009C08E3419F4E3E00B
:10F35000F0E004C0813531F4E2E0F0E09092570033
:10F3600084916FC1823631F489E5D9DE81E0D7DE40
:10F3700080E067C1823419F0873609F0DBC0288746
:10F38000B4DE182FB2DEA82EB0DE8987855428851A
:10F39000823008F055C11A831982BB2489819A8171
:10F3A000A82AB92A273609F045C091E19093570061
:10F3B000E89510E03AC0C0909001D0909101E090A3
:10F3C0009201F090930129852634B9F4E12FF0E001
:10F3D000EC29FD298491A3DE112369F0D701C60130
:10F3E0000296A11DB11D8093900190939101A0936D
:10F3F0009201B0939301102715C0D701C601B695AD
:10F40000A795979587954DD58ADED701C6010296B7
:10F41000A11DB11D8093900190939101A093920141
:10F42000B09393010894A108B108A114B10409F0A4
:10F43000C2CF08C14090900150909101609092011C
:10F44000709093013985363409F062C0F2018092E0
:10F450005700E89507B600FCFDCF5AC02985263431
:10F4600081F53F81332339F1C0909001D090910113
:10F470003CDE8E831D82812F90E02D813E81822B88
:10F48000932BF6010C0100935700E895112480910D
:10F49000900190919101A0919201B09193010296F7
:10F4A000A11DB11D8093900190939101A0939201B1
:10F4B000B093930102C019DE182F2F8120272F83CC
:10F4C00023C0C0909001D0909101E0909201F09003
:10F4D0009301F694E794D794C79407DE682FC6018A
:10F4E000E8D48091900190919101A0919201B09106
:10F4F00093010296A11DB11D8093900190939101FB
:10F50000A0939201B09393010894A108B10802C09E
:10F5100010E01F82A114B10409F0A0CF3985363460
:10F5200009F094CEF20130925700E89507B600FC3E
:10F53000FDCF8CCE833469F4C0909001D0909101BE
:10F54000D4DD90E0F6010C0100935700E8951124FA
:10F550007DCE8336A1F4C0909001D0909101E090CF
:10F560009201F0909301C1DDF601E16090E00C01A1
:10F5700000935700E8951124D701C60133C08D369A
:10F5800059F4E0919001F091910130925700E89583
:10F5900007B600FCFDCF5ACE823551F4E0919001C0
:10F5A000F0919101C590D4908D2DB9DD8C2D49C07D
:10F5B000843421F5C0909001D0909101E0909201A7
:10F5C000F0909301F694E794D794C7948EDD682F5A
:10F5D000C6016FD48091900190919101A091920108
:10F5E000B09193010296A11DB11D8093900190935B
:10F5F0009101A0939201B093930128CE8436F1F447
:10F60000C0909001D0909101E0909201F090930110
:10F61000D701C601B695A7959795879542D47FDD0A
:10F62000D701C6010296A11DB11D80939001909350
:10F630009101A0939201B093930104C08B3111F01A
:10F640008FE36DDD8092E9009091E8008091E80001
:10F650008E778093E80095FF04C010C08EB3882396
:10F66000C1F08091E80080FFF9CF8091E8008E77AB
:10F670008093E80003C08EB3882359F08091E8009E
:10F6800080FFF9CF2092E9008091E8008B7780938A
:10F69000E800ECD35BDD09C084E0282E93E0892EDE
:10F6A00001E025E0322E39E0932EE0918E01F091B9
:10F6B0008F01309709F0B8CD8091E0008160809390
:10F6C000E000F89481E085BF15BE889884B7877FF5
:10F6D00084BF88E10FB6F8948093600010926000B8
:10F6E0000FBE099580E090E029960FB6F894DEBF32
:10F6F0000FBECDBFDF91CF911F910F91FF90EF9083
:10F70000DF90CF90BF90AF909F908F907F906F9041
:10F710005F904F903F902F90089582E061EC42E01F
:10F72000BED083E061E842E1BAD084E060E842E123
:10F73000B6C080919801982F9F77913249F59091AA
:10F7400099019032A1F0913219F5813A09F5809131
:10F75000E800877F8093E80088E091E067E070E050
:10F76000D8D18091E8008B778093E80008958132AA
:10F7700079F48091E800877F8093E80088E091E049
:10F7800067E070E01FD28091E8008E778093E800F8
:10F790000895923029F0933041F0913061F410C017
:10F7A0008EE390E02DE331E01EC0882371F08130BC
:10F7B00089F08230A1F080E090E020E030E013C0DA
:10F7C00082E190E02BE731E00EC084E090E029E395
:10F7D00031E009C088E190E028E930EF04C088E218
:10F7E00090E02FE031E0FA01318320830895DC01BD
:10F7F000CB0107B600FCFDCFF999FECF23E0FC0159
:10F8000020935700E89507B600FCFDCF81E1809377
:10F810005700E8950895DC01CB0107B600FCFDCF49
:10F82000F999FECF25E0FC0120935700E89507B633
:10F8300000FCFDCF81E180935700E8950895DC013D
:10F84000CB0107B600FCFDCFF999FECF21E0FC010A
:10F850000A0120935700E8951124089521E2FC0144
:10F86000209357008491089529E0FC0120935700CC
:10F8700084910895E1E0F0E089E08093570084915D
:10F88000089507B600FCFDCFF999FECF809599E069
:10F89000E1E0F0E0082E90935700E89508958F700E
:10F8A0008093E900EBEEF0E0808181608083EDEEF3
:10F8B000F0E010826093EC0040838091EE00881F9E
:10F8C0008827881F08958091980187FF11C003C081
:10F8D0008EB38823B1F08091E80082FFF9CF809148
:10F8E000E8008B778093E80008958EB3882349F071
:10F8F0008091E80080FFF9CF8091E8008E778093B7
:10F90000E80008950F931F93CF93DF9344D04BD01B
:10F91000C8EDD0E088818F7788838881806888836C
:10F9200088818F7D8883E7EDF0E080818068808327
:10F9300019BC1EBA1092960100EE10E0F801808109
:10F940008B7F808388818160888380E060E042E0F3
:10F95000A6DFE1EEF0E080818E7F8083E2EEF0E0D2
:10F96000808181608083808188608083F8018081CC
:10F970008E7F8083888180618883DF91CF911F9102
:10F980000F910895E7EDF0E080818160808381E050
:10F9900080939701B7CFE8EDF0E080818C7F808382
:10F9A0001092E20008951092DA001092E10008959A
:10F9B0001F920F920FB60F9211242F933F934F93E4
:10F9C0005F936F937F938F939F93AF93BF93EF93C7
:10F9D000FF938091DA0080FF1BC08091D80080FFE8
:10F9E00017C08091DA008E7F8093DA008091D90071
:10F9F00080FF0BC088E189BD8AE189BD09B400FEA2
:10FA0000FDCF81E08EBB31D203C019BC1EBA2DD20E
:10FA10008091E10080FF17C08091E20080FF13C059
:10FA20008091E2008E7F8093E2008091E20080610D
:10FA30008093E2008091D80080628093D80019BC46
:10FA400085E08EBB12D28091E10084FF2CC08091B2
:10FA5000E20084FF28C088E189BD8AE189BD09B43C
:10FA600000FEFDCF8091D8008F7D8093D8008091DB
:10FA7000E1008F7E8093E1008091E2008F7E809391
:10FA8000E2008091E20081608093E2008091960123
:10FA9000882321F48091E30087FF02C084E001C045
:10FAA00081E08EBBE2D18091E10083FF21C0809193
:10FAB000E20083FF1DC08091E100877F8093E10019
:10FAC00082E08EBB109296018091E1008E7F809340
:10FAD000E1008091E2008E7F8093E2008091E2005D
:10FAE00080618093E20080E060E042E0D8DEBDD13A
:10FAF000FF91EF91BF91AF919F918F917F916F9106
:10FB00005F914F913F912F910F900FBE0F901F90DB
:10FB1000189520919E0130919F012617370720F4F8
:10FB2000B901FC0120E035C061157105D1F72091C4
:10FB3000E8002E772093E800F4CF8EB38823F1F10C
:10FB40008530C1F18091E80083FD36C08091E800E6
:10FB500082FD2AC08091E80080FF1BC08091F200E6
:10FB60009091F30006C021912093F1006150704004
:10FB700001966115710519F088309105A0F321E017
:10FB80008830910509F020E08091E8008E7780931D
:10FB9000E8006115710589F6222379F605C08EB358
:10FBA000882361F0853061F08091E80082FFF7CF13
:10FBB00080E0089583E0089581E0089582E008954B
:10FBC00083E008956115710529F42091E8002B77F1
:10FBD0002093E800382F292F25C08EB38823A9F160
:10FBE000853079F18091E80083FD2DC08091E80097
:10FBF00082FFF3CFE32FF22F08C08091F1008193B1
:10FC00003E2F2F2F6150704041F03E2F2F2F8091BB
:10FC1000F2009091F300009781F78091E8008B77D4
:10FC20008093E80061157105C1F605C08EB3882385
:10FC300061F0853061F08091E80080FFF7CF80E0CF
:10FC4000089583E0089581E0089582E0089583E0B7
:10FC500008950F931F93CF93DF9300D0CDB7DEB7F6
:10FC600088E0E8E9F1E09091F10091938150D9F7B3
:10FC700060DD8091E80083FFE3C08091980190915E
:10FC80009901953009F46CC0963040F4913069F1D7
:10FC9000913070F0933009F0D3C027C0983009F448
:10FCA000A2C0993009F4B1C0963009F0C9C07BC038
:10FCB000803881F0823809F0C3C080919C018F7038
:10FCC0008093E9009091EB0081E095FF80E0109235
:10FCD000E90001C080E09091E800977F9093E800F0
:10FCE0008093F1001092F10089C0882319F08230CE
:10FCF00009F0A6C08F71823009F0A2C080919A01EC
:10FD0000882341F520919C012F7009F499C020931C
:10FD1000E9008091EB0080FF1DC080919901833044
:10FD200021F48091EB00806213C08091EB00806130
:10FD30008093EB0081E090E002C0880F991F2A9524
:10FD4000E2F78093EA001092EA008091EB0088606D
:10FD50008093EB001092E9008091E800877F51C00A
:10FD6000882309F06DC010919A011F770FB7F8949E
:10FD70008091E800877F8093E800A5DD8091E8000E
:10FD800080FFFCCF8091E3008078812B8093E3009B
:10FD900080688093E300112311F083E001C082E0CA
:10FDA0008EBB0FBF4DC08058823008F049C0809193
:10FDB0009A0190919B0160919C01AE014F5F5F4F52
:10FDC000E8DCBC01009709F43BC08091E800877F24
:10FDD0008093E80089819A819CDE8091E8008B778E
:10FDE0008093E8002DC0803859F58091E800877F26
:10FDF0008093E800809196018093F1008091E80063
:10FE00008E778093E8005FDD1BC08823C9F4909152
:10FE10009A019230A8F48091E800877F8093E800EF
:10FE20009093960150DD80919601882321F4809172
:10FE3000E30087FF02C084E001C081E08EBB6DDC7F
:10FE40008091E80083FF0AC08091EB00806280937C
:10FE5000EB008091E800877F8093E8000F900F907F
:10FE6000DF91CF911F910F9108950895CF938EB395
:10FE70008823A9F08091E9008F709091EC0090FFA9
:10FE800002C0C0E801C0C0E0C82B1092E900809118
:10FE9000E80083FF01C0DDDECF70C093E900CF91A1
:10FEA0000895F999FECF92BD81BDF89A992780B542
:10FEB0000895262FF999FECF1FBA92BD81BD20BDAE
:10FEC0000FB6F894FA9AF99A0FBE01960895F8942D
:02FED000FFCF62
:10FED2004C554641434443000000000000000828FE
:10FEE200034C0055004600410020004300440043FB
:10FEF20000200042006F006F0074006C006F006110
:10FF02000064006500720000000403090409023E57
:10FF12000002010080320904000001020201000512
:10FF220024001001042402060524060001070582AC
:10FF3200030800FF09040100020A0000000705048B
:10FF420002100005070583021000051201100102CC
:0EFF5200000008EB034A20000101020001003C
:10FFA00026CC39CC4CCC5ACC5FCC64CC6ACC0895EE
:08FFB0000895089508950895D5
:10FFE000DFCFDFCFDFCFDFCFDFCFDFCFDFCFDFCFA1
:08FFF000DFCFDFCFDFCFDFCF51
:08FFF80000F00000B1DFFBDCAA
:040000030000F00009
:00000001FF
