:020000021000EC
:10E0000058C000009BC0000099C0000097C00000ED
:10E0100095C0000093C0000091C000008FC00000B8
:10E020008DC000008BC000005EC5000087C00000EE
:10E0300085C0000083C0000081C000007FC00000D8
:10E040007DC000007BC0000079C0000077C00000E8
:10E0500076C0000073C0000071C000006FC00000F7
:10E060006DC000006BC0000069C0000067C0000008
:10E0700065C0000063C0000061C000005FC0000018
:10E080005DC000005BC0000059C0000057C0000028
:10E0900055C0000053C00000180344006500610033
:10E0A0006E002000430061006D0065007200610099
:10E0B000000011241FBECFEFD0E2DEBFCDBF04B6FB
:10E0C00003FE25C08091A4019091A50182549C4D2E
:10E0D000F1F484B7877F84BF88E10FB6F89480930A
:10E0E0006000109260000FBEF89410926F001092C2
:10E0F0008100109285001092840081E085BF15BEDA
:10E100001092A5011092A401E0E0F0E0099511E061
:10E11000A0E0B1E0E0E0F0EF01E00BBF02C007904B
:10E120000D92AE38B107D9F711E0AEE8B1E001C009
:10E130001D92A43AB107E1F793D060C761CF1F9257
:10E140000F920FB60F9211248F939F93AF93BF93AB
:10E150008091960190919701A0919801B0919901B9
:10E160000196A11DB11D8093960190939701A093F4
:10E170009801B0939901BF91AF919F918F910F90AA
:10E180000FBE0F901F90189584E08093E9000DC09A
:10E190008091E8008B778093E80003C08EB38823DA
:10E1A00051F08091E80082FFF9CF8091E80085FF6F
:10E1B000EFCF8091F1000895982F83E08093E900DC
:10E1C0008091E80085FD0DC08091E8008E778093F6
:10E1D000E80003C08EB3882331F08091E80080FF0F
:10E1E000F9CF9093F100089590919C01892F8F773A
:10E1F000813249F580919D018032A1F0813219F57B
:10E20000913A09F58091E800877F8093E80088E0E3
:10E2100091E067E070E01CD58091E8008B778093F7
:10E22000E8000895913279F48091E800877F809327
:10E23000E80088E091E067E070E066D58091E80052
:10E240008E778093E800089582E061EC42E0BED3CF
:10E2500083E061E842E1BAD384E060E842E1B6C31A
:10E260002F923F924F925F926F927F928F929F92E6
:10E27000AF92BF92CF92DF92EF92FF920F931F93D4
:10E28000DF93CF9300D000D0CDB7DEB784B7877FC0
:10E2900084BF88E10FB6F89480936000109260000C
:10E2A0000FBE80E090E020E80FB6F8942093610064
:10E2B000809361000FBE11E015BF82E085BFFDD3E2
:10E2C00010936F0083E0809381008098889A7894FF
:10E2D00078990FC08CE390E0A0E0B0E080939201C9
:10E2E00090939301A0939401B09395013E9A469A1E
:10E2F0000CC081E090E0A0E0B0E0809392019093A8
:10E300009301A0939401B0939501109296011092FD
:10E310009701109298011092990179E0672EA7C297
:10E3200024E02093E9008091E80082FF87C22CDF7F
:10E33000182F853419F410920F0103C0843519F495
:10E3400023DF8DE051C28C34E1F38035D1F3843783
:10E3500011F484E49AC0813611F489E545C2813410
:10E36000F1F412DF382E330C222471010027F7FC60
:10E370000095102FE0928E01F0928F010093900192
:10E380001093910101DF90E0880F991FAA2797FD54
:10E39000A095BA2F8E299F29A02BB12BF6C18037CB
:10E3A00011F483E521C2833559F400E011E0D8016E
:10E3B0008D918D0101DFB1E007301B07C1F715C258
:10E3C000863521F481E3F8DE80E30EC2833731F431
:10E3D00082E8F2DE87E9F0DE8EE106C2853629F5B5
:10E3E00080E090E0A0E0B0E023E0FC01A0935B00BF
:10E3F00020935700E89507B600FCFDCF35E0FC01FF
:10E40000A0935B0030935700E89507B600FCFDCF62
:10E4100080509F4FAF4FBF4F803060EE960761E056
:10E42000A60760E0B60701F78CCF8C3649F4ACDE66
:10E430008095E1E0F0E0082E60925700E89581CFEA
:10E44000823731F4E1E0F0E0609257008491CCC172
:10E45000863431F4E0E0F0E0609257008491C4C16A
:10E460008E3431F4E3E0F0E0609257008491BCC157
:10E47000813531F4E2E0F0E0609257008491B4C15C
:10E48000823631F489E598DE81E096DE80E0ACC129
:10E49000823419F0873609F0F5C076DE082F74DE75
:10E4A000F82E72DE882E8554823008F09CC10A83D3
:10E4B00019822F2D30E089819A81282B392B3C83BA
:10E4C0002B83173609F055C091E190935700E895DA
:10E4D000DD2449C0E0908E01F0908F010091900101
:10E4E00010919101A6E48A1609F58D2D90E0A0E027
:10E4F000B0E08E299F29A02BB12BABBFFC018791E7
:10E500005BDEDD2081F082E090E0A0E0B0E0E80E8C
:10E51000F91E0A1F1B1FE0928E01F0928F010093DB
:10E5200090011093910191E0D92618C0D801C7013C
:10E53000B695A795979587954BD53EDE82E090E0FE
:10E54000A0E0B0E0E80EF91E0A1F1B1FE0928E014A
:10E55000F0928F010093900110939101AB81BC81E7
:10E560001197BC83AB83EB81FC81EF2B09F0B2CF19
:10E570003CC1A0908E01B0908F01C0909001D090CE
:10E580009101F6E48F1609F067C023E0F501C0920F
:10E590005B0020935700E89507B600FCFDCF5CC0F8
:10E5A00036E4831681F5992049F1E0908E01F090D0
:10E5B0008F010091900110919101E6DD582E4424C5
:10E5C000872D90E08429952961E00C01F7010093E3
:10E5D0005B0060935700E895112482E090E0A0E092
:10E5E000B0E0E80EF91E0A1F1B1FE0928E01F092A8
:10E5F0008F01009390011093910102C0C5DD782E28
:10E6000091E0992623C0E0908E01F0908F01009157
:10E6100090011091910116950795F794E794B4DD58
:10E62000682FC701DDD480918E0190918F01A09158
:10E630009001B09191010296A11DB11D80938E01B0
:10E6400090938F01A0939001B0939101AB81BC8115
:10E650001197BC83AB8302C077249924EB81FC81A2
:10E66000EF2B09F09DCFF6E48F1609F06ACE25E076
:10E67000F501C0925B0020935700E89507B600FCB7
:10E68000FDCF5FCE8334A1F4E0908E01F0908F0136
:10E69000009190011091910177DD90E031E00C0143
:10E6A000F70100935B0030935700E895112449CEA1
:10E6B000833639F5E0908E01F0908F010091900142
:10E6C0001091910161DDA8019701216090E061E066
:10E6D0000C01F90140935B0060935700E895112409
:10E6E00082E090E0A0E0B0E0E80EF91E0A1F1B1FD8
:10E6F000E0928E01F0928F010093900110939101AE
:10E7000020CE8D3699F480918E0190918F01A09149
:10E710009001B091910125E0FC01A0935B00209352
:10E720005700E89507B600FCFDCF0BCE823581F48B
:10E73000E0908E01F0908F01009190011091910175
:10E740000BBFF701E790F6908F2D36DD8E2D4CC074
:10E75000843421F5E0908E01F0908F0100919001BA
:10E760001091910116950795F794E7940DDD682FA8
:10E77000C70136D480918E0190918F01A0919001B4
:10E78000B09191010296A11DB11D80938E019093CD
:10E790008F01A0939001B0939101D3CD843609F5F8
:10E7A000E0908E01F0908F01009190011091910105
:10E7B000D801C701B695A7959795879509D4FCDC34
:10E7C00082E090E0A0E0B0E0E80EF91E0A1F1B1FF7
:10E7D000E0928E01F0928F010093900110939101CD
:10E7E00004C08B3111F08FE3E7DC93E09093E900F4
:10E7F0009091E8008091E8008E778093E80095FF83
:10E8000004C010C08EB38823C9F08091E80080FF57
:10E81000F9CF8091E8008E778093E80003C08EB333
:10E82000882361F08091E80080FFF9CFA4E0A093F5
:10E83000E9008091E8008B778093E800B5D32091C0
:10E8400096013091970140919801509199018091E2
:10E85000920190919301A0919401B091950182173A
:10E860009307A407B50718F410920F0146988091FA
:10E870000F01882309F054CD8091E00081608093DE
:10E88000E00082E49CED9093A5018093A4012CE02C
:10E8900088E190E00FB6F894A895809360000FBED1
:10E8A00020936000FFCFFA01923049F0933061F07D
:10E8B0009130F9F480E191E022E130E01EC082E283
:10E8C00091E02EE330E019C0882329F480E691E03E
:10E8D00024E030E012C0813029F488E990EE28E18C
:10E8E00030E00BC0823029F484E691E028E230E089
:10E8F00004C080E090E020E030E091838083C90193
:10E9000008959B01AC0107B600FCFDCFF999FECF3D
:10E9100083E0F90140935B0080935700E89507B6C8
:10E9200000FCFDCF81E180935700E89508959B019D
:10E93000AC0107B600FCFDCFF999FECF85E0F901E7
:10E9400040935B0080935700E89507B600FCFDCF2D
:10E9500081E180935700E89508950F931F938B01F1
:10E960009C0107B600FCFDCFF999FECF81E00A01BA
:10E97000F80120935B0080935700E89511241F91C4
:10E980000F91089521E2FC01209357002491822FDA
:10E99000089529E0FC01209357002491822F0895C7
:10E9A000E1E0F0E089E08093570084910895982F8A
:10E9B00007B600FCFDCFF999FECF909589E0E1E024
:10E9C000F0E0092E80935700E89508958F708093AA
:10E9D000E9008091EB0081608093EB001092ED00E4
:10E9E0006093EC004093ED008091EE00881F882733
:10E9F000881F089580919C0188238CF403C08EB3F6
:10EA00008823B1F08091E80082FFF9CF8091E8007F
:10EA10008B778093E80008958EB3882349F0809126
:10EA2000E80080FFF9CF8091E8008E778093E800BE
:10EA30000895EF92FF920F931F9348D04FD008EDA7
:10EA400010E0F80180818F778083808180688083E7
:10EA500080818F7D8083E7EDF0E080818068808316
:10EA600019BC1EBA10929A0180EEE82EF12CF70123
:10EA700080818B7F8083F80180818160808380E04A
:10EA800060E042E0A3DFE1EEF0E080818E7F8083F2
:10EA9000E2EEF0E080818160808380818860808305
:10EAA000F70180818E7F8083F8018081806180837F
:10EAB0001F910F91FF90EF900895E7EDF0E08081B6
:10EAC0008160808381E080939B01B3CFE8EDF0E02B
:10EAD00080818C7F80831092E20008951092DA008A
:10EAE0001092E10008951F920F920FB60F920BB68D
:10EAF0000F9211242F933F934F935F936F937F93C4
:10EB00008F939F93AF93BF93EF93FF938091DA001E
:10EB100080FF1BC08091D80080FF17C08091DA0071
:10EB20008E7F8093DA008091D90080FF0BC084E152
:10EB300089BD86E189BD09B400FEFDCF81E08EBBB1
:10EB400032D203C019BC1EBA2ED28091E10080FFE0
:10EB500017C08091E20080FF13C08091E2008E7F99
:10EB60008093E2008091E20080618093E2008091D6
:10EB7000D80080628093D80019BC85E08EBB13D288
:10EB80008091E10084FF2CC08091E20084FF28C0C6
:10EB900084E189BD86E189BD09B400FEFDCF809185
:10EBA000D8008F7D8093D8008091E1008F7E809384
:10EBB000E1008091E2008F7E8093E2008091E2008C
:10EBC00081608093E20080919A01882331F48091E2
:10EBD000E30087FD02C081E001C084E08EBBE3D189
:10EBE0008091E10083FF21C08091E20083FF1DC07E
:10EBF0008091E100877F8093E10082E08EBB1092DC
:10EC00009A018091E1008E7F8093E1008091E20083
:10EC10008E7F8093E2008091E20080618093E20029
:10EC200080E060E042E0D2DEBED1FF91EF91BF9183
:10EC3000AF919F918F917F916F915F914F913F9194
:10EC40002F910F900BBE0F900FBE0F901F90189535
:10EC50009C014091A2015091A3014617570718F457
:10EC6000F90190E03CC06115710511F0AB01F8CFDE
:10EC70008091E8008E778093E80040E050E0F0CF8C
:10EC80008EB38823E9F18530E9F18091E80083FFB4
:10EC900002C081E008958091E80082FD2BC0809140
:10ECA000E80080FF1CC02091F2003091F30007C003
:10ECB00081918093F100415050402F5F3F4F4115AB
:10ECC000510519F02830310598F390E028303105CE
:10ECD00009F491E08091E8008E778093E800411577
:10ECE000510571F6992361F605C08EB3882341F072
:10ECF000853041F08091E80082FFF7CF80E00895F1
:10ED000082E0089583E008959C016115710529F45E
:10ED10008091E8008B778093E800F90121C08EB3E1
:10ED2000882369F1853069F18091E80083FF02C092
:10ED300081E008958091E80082FFF1CF06C08091C4
:10ED4000F10081936150704031F08091F200909118
:10ED5000F300892BA1F78091E8008B778093E8007E
:10ED600061157105E1F605C08EB3882341F0853049
:10ED700041F08091E80080FFF7CF80E0089582E0C5
:10ED8000089583E008950F931F93DF93CF9300D0EE
:10ED9000CDB7DEB7ECE9F1E08091F100819381E03D
:10EDA000E43AF807C9F720DA8091E80083FFE6C06B
:10EDB00080919C0190919D01953009F46FC096302F
:10EDC00040F4913091F1913070F0933009F0D6C059
:10EDD0002CC0983009F4A5C0993009F4B4C096301D
:10EDE00009F0CCC07EC0803811F490E014C08238A5
:10EDF00009F0C4C08091A0018F708093E9008091D8
:10EE0000EB0090E025E0969587952A95E1F7982FFD
:10EE100091701092E9008091E800877F8093E8006C
:10EE20009093F1001092F10087C0882319F082308E
:10EE300009F0A4C08F71823009F0A0C080919E01BA
:10EE4000882331F52091A0012F7009F497C02093F9
:10EE5000E9008091EB0080FF1BC0933021F480918A
:10EE6000EB00806213C08091EB0080618093EB0027
:10EE700081E090E002C0880F991F2A95E2F7809305
:10EE8000EA001092EA008091EB0088608093EB002A
:10EE90001092E9008091E800877F51C0882309F033
:10EEA0006DC010919E011F770FB7F8948091E80014
:10EEB000877F8093E8009EDD8091E80080FFFCCF93
:10EEC0008091E3008078812B8093E30080688093B9
:10EED000E300112311F482E001C083E08EBB0FBF79
:10EEE0004DC08058823008F049C080919E019091B9
:10EEF0009F016091A001AE014F5F5F4FD4DCBC0168
:10EF0000009709F43BC08091E800877F8093E80078
:10EF100089819A819DDE8091E8008B778093E8005B
:10EF20002DC0803859F58091E800877F8093E800F4
:10EF300080919A018093F1008091E8008E77809310
:10EF4000E80058DD1BC08823C9F490919E019230DF
:10EF5000A8F48091E800877F8093E80090939A015D
:10EF600049DD80919A01882331F48091E30087FD87
:10EF700002C081E001C084E08EBB66D98091E800C8
:10EF800083FF0AC08091EB0080628093EB00809148
:10EF9000E800877F8093E8000F900F90CF91DF917A
:10EFA0001F910F91089508951F938EB3882371F0D8
:10EFB0001091E9008091EC001092E9008091E80046
:10EFC00083FF01C0E0DE1F701093E9001F910895D8
:10EFD000F999FECF92BD81BDF89A992780B5089521
:10EFE000262FF999FECF1FBA92BD81BD20BD0FB665
:10EFF000F894FA9AF99A0FBE01960895F894FFCF03
:10F000004C55464143444300000000000000080105
:10F010001201100102000008EB034A200001010266
:10F02000000109023E0002010080320904000001D3
:10F030000202010005240010010424020605240632
:10F040000001070582030800FF09040100020A000D
:10F0500000000705040210000507058302100005E3
:10F060000403090428034C00550046004100200019
:10F07000430044004300200042006F006F00740012
:0EF080006C006F00610064006500720000000B
:10FFA0000C9481F40C9497F40C94ADF40C94C2F47A
:10FFB0000C94C9F40C94D0F40C94D7F408950895DB
:06FFC00008950895089564
:10FFE000DFCFE0CFE1CFE2CFE3CFE4CFE5CFE6CF85
:08FFF000E6CFE6CFE6CFE6CF35
:08FFF80000E00100B1DFFBDCB9
:040000031000E00009
:00000001FF
