:020000021000EC
:10E0000058C000009FC000009DC000009BC00000E1
:10E0100099C0000097C0000095C0000093C00000A8
:10E0200091C000008FC0000032C500008BC000000E
:10E0300089C0000087C0000085C0000083C00000C8
:10E0400081C000007FC000007DC000007BC00000D8
:10E05000A4C3000077C0000075C0000073C00000BA
:10E0600071C000006FC000006DC000006BC00000F8
:10E0700069C0000067C0000065C0000063C0000008
:10E0800061C000005FC000005DC000005BC0000018
:10E0900059C0000057C0000018034400650061002B
:10E0A0006E002000430061006D0065007200610099
:10E0B000000011241FBECFEFD0E2DEBFCDBF04B6FB
:10E0C00003FE28C08091AC019091AD012CED82340B
:10E0D000920701F584B7877F84BF88E10FB6F89473
:10E0E00080936000109260000FBEF89410926F0051
:10E0F00010928100109285001092840081E085BF0B
:10E1000015BE1092AD011092AC016A987298E0E0D1
:10E11000F0E0099511E0A0E0B1E0E8EBFFEE01E0EE
:10E120000BBF02C007900D92A639B107D9F71BBEED
:10E1300011E0A6E9B1E001C01D92AC3AB107E1F7E8
:10E1400033D038C75DCF84E08093E9000DC0809163
:10E15000E8008B778093E80003C08EB3882359F0E2
:10E160008091E80082FFF9CF8091E80085FFEFCF32
:10E170008091F100089580E0089593E09093E90084
:10E180009091E80095FD0DC09091E8009E779093E6
:10E19000E80003C09EB3992331F09091E80090FF0E
:10E1A000F9CF8093F1000895CF93DF93CDB7DEB719
:10E1B00029970FB6F894DEBF0FBECDBF84B7877F17
:10E1C00084BF88E10FB6F8948093600010926000DD
:10E1D0000FBE90E080E80FB6F894809361009093B2
:10E1E00061000FBE11E015BF82E085BF3AD48AB14D
:10E1F000806F8AB98BB18F708BB910936F0083E0F9
:10E20000809381008BB18F7080618BB978946A980C
:10E21000729A8CB182FD05C08EE190E0A0E0B0E082
:10E2200004C081E090E0A0E0B0E08093960190937C
:10E230009701A0939801B093990110929A011092BE
:10E240009B0110929C0110929D0174E0272EE3E047
:10E250008E2E01E0F5E03F2E19E0912E80C2209233
:10E26000E9008091E80082FF62C26DDF282F8534CB
:10E2700019F41092080103C0843519F464DF8DE0AD
:10E280002EC28C34E1F38035D1F3843711F484E469
:10E2900093C0813611F489E522C2813419F553DF28
:10E2A000182F51DF282F30E0220F331FA9016627D6
:10E2B00057FD6095762F110F1C831B822B813C81AB
:10E2C000C901AA2797FDA095BA2F482B592B6A2B75
:10E2D0007B2B40939E0150939F016093A00170930C
:10E2E000A101CDCF803711F483E5F9C1833559F40D
:10E2F00080E091E017E06C01F60181916F013DDF54
:10E300001150D1F7EDC1863521F481E336DF80E38A
:10E31000E6C1833731F482E830DF87E92EDF8EE112
:10E32000DEC1853611F580E090E0DC01FC01A093B0
:10E330005B0080925700E89507B600FCFDCFFC011A
:10E34000A0935B0030925700E89507B600FCFDCF24
:10E3500080509F4FAF4FBF4F8030F0EE9F07F1E0EE
:10E36000AF07F0E0BF0711F78ACF8C3649F4EBDE38
:10E370008095E1E0F0E0082E90925700E8957FCF7D
:10E38000823719F4E1E0F0E00EC0863419F4E0E0E1
:10E39000F0E009C08E3419F4E3E0F0E004C0813508
:10E3A00031F4E2E0F0E090925700849198C1823617
:10E3B00031F489E5E2DE81E0E0DE80E090C1823484
:10E3C00019F0873609F0EDC02887BDDE182FBBDEB7
:10E3D000A82EB9DE382F85542885823008F07EC1FA
:10E3E0001A831982BB2489819A81A82AB92A2736DF
:10E3F00009F04CC091E190935700E89510E0432E4E
:10E4000040C0C0909E01D0909F01E090A001F0908C
:10E41000A101E6E44E16E9F4812F90E0A0E0B0E01F
:10E420008C299D29AE29BF29ABBFFC018791A5DEB0
:10E43000112369F0D701C6010296A11DB11D809379
:10E440009E0190939F01A093A001B093A10110277A
:10E4500015C0D701C601B695A7959795879594D510
:10E460008CDED701C6010296A11DB11D80939E01CD
:10E4700090939F01A093A001B093A1010894A108DB
:10E48000B108A114B10409F0BCCF2AC140909E018B
:10E4900050909F016090A0017090A101363409F066
:10E4A0006AC0F20160925B0080925700E89507B65F
:10E4B00000FCFDCF60C029852634B1F53F813323B0
:10E4C00069F1C0909E01D0909F01E090A001F09072
:10E4D000A10139DE8E831D82812F90E02D813E8146
:10E4E000822B932B0C01F601E0925B000093570006
:10E4F000E895112480919E0190919F01A091A00127
:10E50000B091A1010296A11DB11D80939E0190932F
:10E510009F01A093A001B093A10102C014DE182FA7
:10E520003F8130273F8323C0C0909E01D0909F0140
:10E53000E090A001F090A101F694E794D794C794DD
:10E5400002DE682FC60128D580919E0190919F011F
:10E55000A091A001B091A1010296A11DB11D8093CF
:10E560009E0190939F01A093A001B093A1010894F4
:10E57000A108B10804C010E080E039878F83A1149E
:10E58000B10409F098CF3985363409F078CEF2011C
:10E5900060925B0030925700E89507B600FCFDCF13
:10E5A0006ECE833499F4C0909E01D0909F01E0908C
:10E5B000A001F090A101C7DD90E00C01F601E0920E
:10E5C0005B0000935700E895112459CE8336C1F4BF
:10E5D000C0909E01D0909F01E090A001F090A10119
:10E5E000B2DDB701A601416090E00C01FA01609331
:10E5F0005B0000935700E8951124D701C60140C085
:10E600008D3691F480919E0190919F01A091A0017F
:10E61000B091A101FC01A0935B0030925700E895F6
:10E6200007B600FCFDCF2BCE823581F480919E0190
:10E6300090919F01A091A001B091A101ABBFFC01FD
:10E64000C790D6908D2D99DD8C2D49C0843421F54D
:10E65000C0909E01D0909F01E090A001F090A10198
:10E66000F694E794D794C7946EDD682FC60194D4CE
:10E6700080919E0190919F01A091A001B091A10174
:10E680000296A11DB11D80939E0190939F01A093BE
:10E69000A001B093A101F3CD8436F1F4C0909E01A6
:10E6A000D0909F01E090A001F090A101D701C60198
:10E6B000B695A7959795879567D45FDDD701C60175
:10E6C0000296A11DB11D80939E0190939F01A0937E
:10E6D000A001B093A10104C08B3111F08FE34DDD97
:10E6E0008092E9009091E8008091E8008E77809315
:10E6F000E80095FF04C010C08EB38823C1F080915C
:10E70000E80080FFF9CF8091E8008E778093E800E1
:10E7100003C08EB3882359F08091E80080FFF9CFC1
:10E720002092E9008091E8008B778093E80011D473
:10E7300080919A0190919B01A0919C01B0919D01C3
:10E7400040919601509197016091980170919901C3
:10E75000481759076A077B0710F410920801809147
:10E760000801882309F07BCD80EC89B98091E00015
:10E7700081608093E00082E49CED9093AD018093F2
:10E78000AC012CE088E190E00FB6F894A895809356
:10E7900060000FBE20936000FFCF1F920F920FB654
:10E7A0000F9211248F939F93AF93BF9380E389B906
:10E7B00080919A0190919B01A0919C01B0919D0143
:10E7C0000196A11DB11D80939A0190939B01A09386
:10E7D0009C01B0939D01BF91AF919F918F910F903C
:10E7E0000FBE0F901F90189582E061EC42E0C6D0FA
:10E7F00083E061E842E1C2D084E060E842E1BEC06B
:10E800008091A401982F9F77913259F590E399B99F
:10E810009091A5019032A1F0913219F5813A09F554
:10E820008091E800877F8093E80089E091E067E0CD
:10E8300070E0E2D18091E8008B778093E800089542
:10E84000813279F48091E800877F8093E80089E045
:10E8500091E067E070E029D28091E8008E778093A4
:10E86000E8000895923029F0933041F0913061F43E
:10E8700010C08EE390E02EE331E01EC0882371F0DB
:10E88000813089F08230A1F080E090E020E030E03B
:10E8900013C082E190E02CE731E00EC084E090E00C
:10E8A0002AE331E009C088E190E028E930EE04C0B5
:10E8B00088E290E020E131E0FA013183208308957D
:10E8C000DC01CB0107B600FCFDCFF999FECF23E0B8
:10E8D000FC01A0935B0020935700E89507B600FC6D
:10E8E000FDCF81E180935700E8950895DC01CB01CD
:10E8F00007B600FCFDCFF999FECF25E0FC01A093FF
:10E900005B0020935700E89507B600FCFDCF81E13E
:10E9100080935700E8950895DC01CB0107B600FC11
:10E92000FDCFF999FECF21E00A01FC01A0935B0025
:10E9300020935700E8951124089521E2FC012093CB
:10E9400057008491089529E0FC0120935700849199
:10E950000895E1E0F0E089E0809357008491089504
:10E9600007B600FCFDCFF999FECF809599E0E1E074
:10E97000F0E0082E90935700E89508958F708093EB
:10E98000E900EBEEF0E0808181608083EDEEF0E065
:10E9900010826093EC0040838091EE00881F8827EE
:10E9A000881F08958091A40187FF11C003C08EB312
:10E9B0008823B1F08091E80082FFF9CF8091E800D0
:10E9C0008B778093E80008958EB3882349F0809177
:10E9D000E80080FFF9CF8091E8008E778093E8000F
:10E9E00008950F931F93CF93DF9344D04BD0C8ED7E
:10E9F000D0E088818F778883888180688883888148
:10EA00008F7D8883E7EDF0E080818068808319BC8A
:10EA10001EBA1092A20100EE10E0F80180818B7FF7
:10EA2000808388818160888380E060E042E0A6DFA7
:10EA3000E1EEF0E080818E7F8083E2EEF0E0808185
:10EA400081608083808188608083F80180818E7FEF
:10EA50008083888180618883DF91CF911F910F919E
:10EA60000895E7EDF0E080818160808381E080930C
:10EA7000A301B7CFE8EDF0E080818C7F8083109216
:10EA8000E20008951092DA001092E10008951F92BA
:10EA90000F920FB60F920BB60F9211242F933F9344
:10EAA0004F935F936F937F938F939F93AF93BF9396
:10EAB000EF93FF938091DA0080FF1BC08091D80014
:10EAC00080FF17C08091DA008E7F8093DA008091FA
:10EAD000D90080FF0BC08CE089BD8EE089BD09B4F0
:10EAE00000FEFDCF81E08EBB33D203C019BC1EBA3D
:10EAF0002FD28091E10080FF17C08091E20080FF5B
:10EB000013C08091E2008E7F8093E2008091E2004A
:10EB100080618093E2008091D80080628093D80069
:10EB200019BC85E08EBB14D28091E10084FF2CC01B
:10EB30008091E20084FF28C08CE089BD8EE089BD11
:10EB400009B400FEFDCF8091D8008F7D8093D8005E
:10EB50008091E1008F7E8093E1008091E2008F7EC2
:10EB60008093E2008091E20081608093E2008091D6
:10EB7000A201882321F48091E30087FF02C084E092
:10EB800001C081E08EBBE4D18091E10083FF21C010
:10EB90008091E20083FF1DC08091E100877F809318
:10EBA000E10082E08EBB1092A2018091E1008E7F95
:10EBB0008093E1008091E2008E7F8093E20080915B
:10EBC000E20080618093E20080E060E042E0D6DE17
:10EBD000BFD1FF91EF91BF91AF919F918F917F91A5
:10EBE0006F915F914F913F912F910F900BBE0F90BE
:10EBF0000FBE0F901F9018952091AA013091AB0184
:10EC00002617370720F4B901FC0120E035C0611553
:10EC10007105D1F72091E8002E772093E800F4CF1A
:10EC20008EB38823F1F18530C1F18091E80083FD36
:10EC300036C08091E80082FD2AC08091E80080FF04
:10EC40001BC08091F2009091F30006C021912093A7
:10EC5000F1006150704001966115710519F088301E
:10EC60009105A0F321E08830910509F020E0809122
:10EC7000E8008E778093E8006115710589F62223FC
:10EC800079F605C08EB3882361F0853061F08091FC
:10EC9000E80082FFF7CF80E0089583E0089581E0E7
:10ECA000089582E0089583E008956115710529F4BF
:10ECB0002091E8002B772093E800382F292F25C0DA
:10ECC0008EB38823A9F1853079F18091E80083FD26
:10ECD0002DC08091E80082FFF3CFE32FF22F08C010
:10ECE0008091F10081933E2F2F2F6150704041F0B1
:10ECF0003E2F2F2F8091F2009091F300009781F723
:10ED00008091E8008B778093E80061157105C1F66A
:10ED100005C08EB3882361F0853061F08091E800F2
:10ED200080FFF7CF80E0089583E0089581E00895A3
:10ED300082E0089583E008950F931F93CF93DF93AC
:10ED400000D0CDB7DEB788E0E4EAF1E09091F100C1
:10ED500091938150D9F754DD8091E80083FFE3C09F
:10ED60008091A4019091A501953009F46CC0963072
:10ED700040F4913069F1913070F0933009F0D3C0D4
:10ED800027C0983009F4A2C0993009F4B1C0963078
:10ED900009F0C9C07BC0803881F0823809F0C3C057
:10EDA0008091A8018F708093E9009091EB0081E041
:10EDB00095FF80E01092E90001C080E09091E800AA
:10EDC000977F9093E8008093F1001092F10089C042
:10EDD000882319F0823009F0A6C08F71823009F0C3
:10EDE000A2C08091A601882341F52091A8012F702F
:10EDF00009F499C02093E9008091EB0080FF1DC0C9
:10EE00008091A501833021F48091EB00806213C0D2
:10EE10008091EB0080618093EB0081E090E002C084
:10EE2000880F991F2A95E2F78093EA001092EA0072
:10EE30008091EB0088608093EB001092E900809154
:10EE4000E800877F51C0882309F06DC01091A601AA
:10EE50001F770FB7F8948091E800877F8093E800D0
:10EE6000A1DD8091E80080FFFCCF8091E3008078F5
:10EE7000812B8093E30080688093E300112311F0DD
:10EE800083E001C082E08EBB0FBF4DC0805882304E
:10EE900008F049C08091A6019091A7016091A80156
:10EEA000AE014F5F5F4FDEDCBC01009709F43BC051
:10EEB0008091E800877F8093E80089819A819CDEB9
:10EEC0008091E8008B778093E8002DC0803859F559
:10EED0008091E800877F8093E8008091A201809371
:10EEE000F1008091E8008E778093E8005BDD1BC025
:10EEF0008823C9F49091A6019230A8F48091E8008B
:10EF0000877F8093E8009093A2014CDD8091A2015D
:10EF1000882321F48091E30087FF02C084E001C0D0
:10EF200081E08EBB61DC8091E80083FF0AC08091A4
:10EF3000EB0080628093EB008091E800877F8093F4
:10EF4000E8000F900F90DF91CF911F910F910895DE
:10EF50000895CF938EB38823A9F08091E9008F7034
:10EF60009091EC0090FF02C0C0E801C0C0E0C82B47
:10EF70001092E9008091E80083FF01C0DDDECF70D0
:10EF8000C093E900CF910895F999FECF92BD81BD5C
:10EF9000F89A992780B50895262FF999FECF1FBAC0
:10EFA00092BD81BD20BD0FB6F894FA9AF99A0FBEB2
:08EFB00001960895F894FFCFCB
:10EFB8004C5546414344430001000000000000084E
:10EFC80028034C005500460041002000430044003F
:10EFD8004300200042006F006F0074006C006F0057
:10EFE800610064006500720000000403090409025E
:10EFF8003E00020100803209040000010202010003
:10F008000524001001042402060524060001070552
:10F0180082030800FF09040100020A000000070536
:10F0280004021000050705830210000512011001F3
:10F0380002000008EB034A200001010200018008D9
:06F04800000000000100C1
:10FFA0000C9460F40C9476F40C948CF40C949DF402
:10FFB0000C94A3F40C94A9F40C94B0F4089508954F
:06FFC00008950895089564
:10FFE000DFCFE0CFE1CFE2CFE3CFE4CFE5CFE6CF85
:08FFF000E6CFE6CFE6CFE6CF35
:08FFF80000E00100B1DFFBDCB9
:040000031000E00009
:00000001FF
