:10000000A2C00000BEC00000BCC00000BAC000001A
:10001000B8C00000B6C00000B4C00000B2C000000C
:10002000B0C00000AEC00000A4C20000AAC0000022
:10003000A8C00000A6C00000A4C00000A2C000002C
:10004000A0C000009EC000009CC000009AC000003C
:1000500098C0000096C0000094C0000092C000004C
:1000600090C000008EC000008CC000008AC000005C
:1000700088C0000086C0000084C0000082C000006C
:1000800080C000007EC000007CC000007AC000007C
:1000900078C0000076C0000026034C0055004600E2
:1000A000410020004A006F0079007300740069006D
:1000B00063006B002000440065006D006F000000CD
:1000C00018034400650061006E00200043006100D9
:1000D0006D0065007200610000000403090409025C
:1000E0002200010100C032090400000103000000E9
:1000F00009211101000122340007058103080001D4
:100100001201100100000008EB034320010001026E
:10011000000105010904A1010901A100093009310B
:10012000159C256435FF4501950275088102C005BF
:100130000919012902150025017501950281027531
:100140000695018101C011241FBECFEFD0E2DEBFB2
:10015000CDBF11E0A0E0B1E0E0E1FCE000E00BBFCA
:1001600002C007900D92A030B107D9F71BBE11E075
:10017000A0E0B1E001C01D92AF30B107E1F7D2D0ED
:1001800045C53ECF9BB19F70982B9BB9089584B70E
:10019000877F84BF88E10FB6F89480936000109247
:1001A00060000FBE90E080E80FB6F8948093610085
:1001B000909361000FBE84B18F7184B98DB18F7C33
:1001C0008DB985B1806E85B98EB180638EB98AB1E3
:1001D000806F8AB98BB18F708BB96A98729AB3C1EC
:1001E00080EAD0CF80E1CECF81E061EC42E0DED08A
:1001F000882311F080E601C080E9C4CFFC0123B15F
:100200008CB1809590E0807390709595879520953E
:10021000207E282B9CB19095947083E0DF011D9285
:100220008A95E9F727FF02C08CE903C024FF02C0CA
:1002300084E68183822F26FF02C03CE903C023FFAE
:1002400002C034E6308385FF03C0828182608283EE
:10025000992319F0828181608283309100013227D5
:10026000809101018927382B81E009F480E02093F7
:100270000001909301010895CF93DF9300D00F9276
:10028000CDB7DEB7809108018130B1F480910701CC
:10029000813A91F4CE010196B1DF8091E800877F29
:1002A0008093E800CE01019663E070E07AD28091FD
:1002B000E8008B778093E8000F900F900F90DF910C
:1002C000CF9108950F931F93CF93DF9300D00F9298
:1002D000CDB7DEB7809106018430E1F481E08093F0
:1002E000E9008091E80080FF15C08E010F5F1F4F6D
:1002F000C80184DFC80163E070E040E050E001D253
:100300008091E8008E778093E80083E0F8011192F5
:100310008A95E9F70F900F900F90DF91CF911F9181
:100320000F91089534DF80E12DDF7894CBDF5BD42B
:10033000FDCF933089F0943028F4913049F1923018
:1003400061F505C09132D1F0923239F51CC082E2DC
:1003500090E0EEEDF0E025C0813041F0813018F002
:100360008230D9F406C0EAEDF0E005C0E0ECF0E040
:1003700002C0E8E9F0E0849190E013C089E090E0E9
:10038000E0EFF0E00EC084E390E0E2E1F1E009C0CC
:1003900082E190E0E0E0F1E004C080E090E0E0E0A5
:1003A000F0E0DA011196FC93EE930895982F2AC09D
:1003B0009093E900981739F07091EC002091ED00CE
:1003C0005091F00003C0242F762F50E021FF19C078
:1003D0003091EB003E7F3093EB003091ED003D7F9C
:1003E0003093ED003091EB0031603093EB0070936F
:1003F000EC002093ED005093F0002091EE0027FFD9
:1004000007C09F5F9730A0F28093E90081E00895D4
:1004100080E008958091070187FF13C004C0809198
:1004200006018823B9F08091E80082FFF8CF80911F
:10043000E8008B778093E800089580910601882377
:1004400049F08091E80080FFF8CF8091E8008E7736
:100450008093E80008958091E4009091E50045E6DE
:1004600001C0C9012091EC0020FF23C02091E800C9
:1004700020FD15C020910601222399F0253099F026
:100480002091EB0025FD11C02091E4003091E500A2
:100490002817390739F3415021F784E0089580E0A7
:1004A000089582E0089583E0089581E0089580E052
:1004B00008952091E80022FFDDCFF9CF0F931F931D
:1004C000CF93DF9349D050D0C8EDD0E088818F77AB
:1004D000888388818068888388818F7D8883E7ED21
:1004E000F0E080818068808319BC10920601109230
:1004F0000201109204011092030100EE10E0F801D5
:1005000080818B7F808388818160888380E060E048
:1005100042E04CDFE1EEF0E080818E7F8083E2EE0E
:10052000F0E0808181608083808188608083F80131
:1005300080818E7F8083888180618883DF91CF91E5
:100540001F910F910895E7EDF0E080818160808335
:1005500081E080930501B2CFE8EDF0E080818C7FEF
:1005600080831092E20008951092DA001092E10068
:1005700008951F920F920FB60F920BB60F9211248F
:100580002F933F934F935F936F937F938F939F939B
:10059000AF93BF93EF93FF938091E10082FF0AC076
:1005A0008091E20082FF06C08091E1008B7F809302
:1005B000E10018D38091DA0080FF1DC08091D8003F
:1005C00080FF19C08091DA008E7F8093DA008091DD
:1005D000D90080FF0CC08CE089BD8EE089BD09B4D4
:1005E00000FEFDCF81E080930601FADD04C019BC56
:1005F00010920601F7DD8091E10080FF18C0809124
:10060000E20080FF14C08091E2008E7F8093E200C0
:100610008091E20080618093E2008091D800806246
:100620008093D80019BC85E080930601DBD28091CD
:10063000E10084FF2DC08091E20084FF29C08CE09E
:1006400089BD8EE089BD09B400FEFDCF8091D80040
:100650008F7D8093D8008091E1008F7E8093E100B0
:100660008091E2008F7E8093E2008091E2008160C1
:100670008093E20080910201882321F48091E300BD
:1006800087FF02C084E001C081E080930601AAD206
:100690008091E10083FF22C08091E20083FF1EC0B1
:1006A0008091E100877F8093E10082E080930601E2
:1006B000109202018091E1008E7F8093E100809191
:1006C000E2008E7F8093E2008091E200806180935F
:1006D000E20080E060E042E069DE84D2FF91EF91C9
:1006E000BF91AF919F918F917F916F915F914F914A
:1006F0003F912F910F900BBE0F900FBE0F901F9048
:100700001895AF92BF92CF92DF92EF92FF921F9314
:10071000CF93DF93EC017B016A019DDE182F8823C4
:10072000A9F5C114D10439F0F60120813181E21A12
:10073000F30AC20FD31FAA24BB2423C08091E80070
:1007400085FD16C08091E8008E778093E8004BD23B
:10075000C114D10449F0F601808191818A0D9B1D5D
:100760009183808315E012C076DE882351F00DC09E
:1007700089918093F1000894E108F1080894A11C84
:10078000B11CE114F104D1F601C0182F812FDF91C3
:10079000CF911F91FF90EF90DF90CF90BF90AF90DF
:1007A000089520910D0130910E012617370720F48E
:1007B000B901FC0120E037C061157105D1F7209126
:1007C000E8002E772093E800F4CF8091060188237B
:1007D00009F43FC08530C9F18091E80083FD37C03E
:1007E0008091E80082FD2BC08091E80080FF1BC053
:1007F0008091F2009091F30006C021912093F100C6
:100800006150704001966115710519F088309105AD
:10081000A0F321E08830910509F020E08091E80004
:100820008E778093E8006115710579F6222369F6C9
:1008300006C080910601882361F0853061F08091C7
:10084000E80082FFF6CF80E0089583E0089581E01C
:10085000089582E0089583E0089520910D0130917C
:100860000E012617370720F4B901FC0120E038C03B
:1008700061157105D1F72091E8002E772093E800EB
:10088000F4CF80910601882309F440C08530D1F16E
:100890008091E80083FD38C08091E80082FD2CC083
:1008A0008091E80080FF1CC08091F2009091F300DD
:1008B00007C024912093F100319661507040019659
:1008C0006115710519F08830910598F321E08830A1
:1008D000910509F020E08091E8008E778093E80090
:1008E0006115710571F6222361F606C0809106013B
:1008F000882361F0853061F08091E80082FFF6CFB7
:1009000080E0089583E0089581E0089582E00895ED
:1009100083E008950F931F93CF93DF93CDB7DEB796
:10092000AC970FB6F894DEBF0FBECDBF88E0E7E00E
:10093000F1E09091F10091938150D9F79DDC809185
:10094000E80083FF36C1809107012091080125301E
:1009500009F484C0263040F42130A1F1213070F038
:10096000233009F026C12EC0283009F4F4C0293004
:1009700009F403C1263009F01CC194C0803821F06D
:10098000823809F016C108C08091030190910401DA
:10099000992371F082600CC080910B018770809365
:1009A000E9009091EB0081E095FF80E01092E90072
:1009B0009091E800977F9093E8008093F100109267
:1009C000F100D4C0882319F0823009F0F2C090E021
:1009D0008F719070009729F08230910509F0E9C07D
:1009E0000BC080910901813009F0E3C0233009F088
:1009F00080E0809304012CC080910901882341F597
:100A000020910B01277009F4D4C02093E900809154
:100A1000EB0080FF1DC080910801833021F480919C
:100A2000EB00806213C08091EB0080618093EB004B
:100A300081E090E002C0880F991F2A95E2F7809329
:100A4000EA001092EA008091EB0088608093EB004E
:100A50001092E9008091E800877F8BC0882309F01D
:100A6000A8C0109109011F770FB7F8948091E80092
:100A7000877F8093E800CEDC8091E80080FFFCCF88
:100A80008091E3008078812B8093E30080688093DD
:100A9000E300112311F083E001C082E0809306019E
:100AA0000FBF87C08058823008F083C08091090151
:100AB00090910A0123E08C3D9207A9F583E08C8395
:100AC0008AE28B835FB7F894DE01139680E090E0B2
:100AD0004EE061E2E42FF0E060935700E49180FF84
:100AE00003C0E295EF704F5FEF702E2F30E0EA30D9
:100AF00018F0295C3F4F02C0205D3F4F13963C9396
:100B00002E931297019612968431910519F75FBFC3
:100B10008091E800877F8093E800CE0103966AE227
:100B200070E03FDE12C060910B01AE014F5F5F4F7E
:100B300000DCBC01009709F43CC08091E800877F8D
:100B40008093E80089819A8188DE8091E8008B7724
:100B50008093E8002EC0803861F58091E800877F9F
:100B60008093E800809102018093F1008091E80079
:100B70008E778093E8004EDC1CC08823D1F49091DE
:100B800009019230B0F48091E800877F8093E800FB
:100B9000909302013FDC80910201882321F480912F
:100BA000E30087FF02C084E001C081E0809306017A
:100BB0001BDB8091E80083FF0AC08091EB0080621C
:100BC0008093EB008091E800877F8093E800AC96EB
:100BD0000FB6F894DEBF0FBECDBFDF91CF911F914E
:100BE0000F9108950895CF9380910601882361F0B5
:100BF000C091E900C7701092E9008091E80083FF7E
:100C000001C088DEC093E900CF910895F894FFCF2A
:00000001FF
