:020000021000EC
:10E0000058C0000074C0000072C0000070C0000062
:10E010006EC000006CC000006AC0000068C0000054
:10E0200066C0000064C0000001C5000060C00000C0
:10E030005EC000005CC000005AC0000058C0000074
:10E0400056C0000054C0000052C0000050C0000084
:10E050004EC000004CC000004AC0000048C0000094
:10E0600046C0000044C0000042C0000040C00000A4
:10E070003EC000003CC000003AC0000038C00000B4
:10E0800036C0000034C0000032C0000030C00000C4
:10E090002EC000002CC00000180344006500610081
:10E0A0006E002000430061006D0065007200610099
:10E0B000000011241FBECFEFD0E2DEBFCDBF11E0C4
:10E0C000A0E0B1E0E6E5FFEE01E00BBF02C0079083
:10E0D0000D92A639B107D9F71BBE11E0A6E9B1E050
:10E0E00001C01D92A83AB107E1F75AD032C788CFD4
:10E0F00084E08093E9000DC08091E8008B778093E5
:10E10000E80003C08EB3882359F08091E80082FFB5
:10E11000F9CF8091E80085FFEFCF8091F10008955D
:10E1200080E0089593E09093E9009091E80095FDD8
:10E130000DC09091E8009E779093E80003C09EB3D5
:10E14000992331F09091E80090FFF9CF8093F1008E
:10E15000089580919C0190919D01019690939D015D
:10E1600080939C01292F97FF03C03EEF391B232F7B
:10E17000220F281710F4469801C0469A80919C01FE
:10E1800090919D012DEF883E920749F48091960170
:10E19000909197010197909397018093960108952C
:10E1A0002F923F924F925F926F927F928F929F92A7
:10E1B000AF92BF92CF92DF92EF92FF920F931F9395
:10E1C000CF93DF93CDB7DEB729970FB6F894DEBFB4
:10E1D0000FBECDBF8EEF80BB80E487B9889A84B72D
:10E1E000877F84BF88E10FB6F89480936000109217
:10E1F00060000FBE90E080E80FB6F8948093610055
:10E20000909361000FBE81E085BF82E085BFF8D3A7
:10E210007894789907C084E690E090939701809372
:10E22000960172C210929701109296016DC22092CF
:10E23000E9008091E80082FF64C25ADF282F85340C
:10E2400029F4109297011092960103C0843519F4B5
:10E250004FDF8DE02EC28C34E1F38035D1F384376B
:10E2600011F484E493C0813611F489E522C281342B
:10E2700019F53EDF182F3CDF282F30E0220F331F27
:10E28000A901662757FD6095762F110F1C831B820D
:10E290002B813C81C901AA2797FDA095BA2F482B55
:10E2A000592B6A2B7B2B40939801509399016093D3
:10E2B0009A0170939B01CDCF803711F483E5F9C1AA
:10E2C000833559F480E091E017E06C01F60181910B
:10E2D0006F0128DF1150D1F7EDC1863521F481E3BC
:10E2E00021DF80E3E6C1833731F482E81BDF87E971
:10E2F00019DF8EE1DEC1853611F580E090E0DC01AA
:10E30000FC01A0935B0080925700E89507B600FCE3
:10E31000FDCFFC01A0935B0030925700E89507B653
:10E3200000FCFDCF80509F4FAF4FBF4F8030F0EECD
:10E330009F07F1E0AF07F0E0BF0711F78ACF8C36F7
:10E3400049F4D6DE8095E1E0F0E0082E9092570087
:10E35000E8957FCF823719F4E1E0F0E00EC0863413
:10E3600019F4E0E0F0E009C08E3419F4E3E0F0E0E5
:10E3700004C0813531F4E2E0F0E0909257008491DE
:10E3800098C1823631F489E5CDDE81E0CBDE80E0D4
:10E3900090C1823419F0873609F0EDC02887A8DED5
:10E3A000182FA6DEA82EA4DE382F855428858230AB
:10E3B00008F07EC11A831982BB2489819A81A82A18
:10E3C000B92A273609F04CC091E190935700E8959F
:10E3D00010E0432E40C0C0909801D0909901E09089
:10E3E0009A01F0909B01E6E44E16E9F4812F90E04B
:10E3F000A0E0B0E08C299D29AE29BF29ABBFFC016C
:10E40000879190DE112369F0D701C6010296A11D04
:10E41000B11D8093980190939901A0939A01B093B4
:10E420009B01102715C0D701C601B695A7959795F2
:10E43000879579D577DED701C6010296A11DB11D5A
:10E440008093980190939901A0939A01B0939B01B6
:10E450000894A108B108A114B10409F0BCCF2AC1E5
:10E46000409098015090990160909A0170909B01A2
:10E47000363409F06AC0F20160925B008092570066
:10E48000E89507B600FCFDCF60C029852634B1F5BC
:10E490003F81332369F1C0909801D0909901E090B9
:10E4A0009A01F0909B0124DE8E831D82812F90E0E3
:10E4B0002D813E81822B932B0C01F601E0925B00B3
:10E4C00000935700E895112480919801909199014B
:10E4D000A0919A01B0919B010296A11DB11D80935C
:10E4E000980190939901A0939A01B0939B0102C067
:10E4F000FFDD182F3F8130273F8323C0C090980154
:10E50000D0909901E0909A01F0909B01F694E794E5
:10E51000D794C794EDDD682FC6010DD58091980181
:10E5200090919901A0919A01B0919B010296A11D31
:10E53000B11D8093980190939901A0939A01B09393
:10E540009B010894A108B10804C010E080E039875D
:10E550008F83A114B10409F098CF3985363409F0BE
:10E5600078CEF20160925B0030925700E89507B6D2
:10E5700000FCFDCF6ECE833499F4C0909801D0900A
:10E580009901E0909A01F0909B01B2DD90E00C01BE
:10E59000F601E0925B0000935700E895112459CEF4
:10E5A0008336C1F4C0909801D0909901E0909A010F
:10E5B000F0909B019DDDB701A601416090E00C0148
:10E5C000FA0160935B0000935700E8951124D7018E
:10E5D000C60140C08D3691F48091980190919901C7
:10E5E000A0919A01B0919B01FC01A0935B00309235
:10E5F0005700E89507B600FCFDCF2BCE823581F49D
:10E600008091980190919901A0919A01B0919B01FC
:10E61000ABBFFC01C790D6908D2D84DD8C2D49C0F9
:10E62000843421F5C0909801D0909901E0909A012E
:10E63000F0909B01F694E794D794C79459DD682F26
:10E64000C60179D48091980190919901A0919A0185
:10E65000B0919B010296A11DB11D809398019093EA
:10E660009901A0939A01B0939B01F3CD8436F1F404
:10E67000C0909801D0909901E0909A01F0909B0190
:10E68000D701C601B695A795979587954CD44ADDD5
:10E69000D701C6010296A11DB11D809398019093E8
:10E6A0009901A0939A01B0939B0104C08B3111F0A2
:10E6B0008FE338DD8092E9009091E8008091E800D6
:10E6C0008E778093E80095FF04C010C08EB3882336
:10E6D000C1F08091E80080FFF9CF8091E8008E774B
:10E6E0008093E80003C08EB3882359F08091E8003E
:10E6F00080FFF9CF2092E9008091E8008B7780932A
:10E70000E800F6D326DD09C084E0282E93E0892EA8
:10E7100001E025E0322E39E0932EE0919601F09150
:10E720009701309709F083CD8091E000816080935C
:10E73000E000F89481E085BF15BE889884B7877F94
:10E7400084BF88E10FB6F894809360001092600057
:10E750000FBE099580E090E029960FB6F894DEBFD1
:10E760000FBECDBFDF91CF911F910F91FF90EF9022
:10E77000DF90CF90BF90AF909F908F907F906F90E1
:10E780005F904F903F902F90089582E061EC42E0BF
:10E79000C4D083E061E842E1C0D084E060E842E1B7
:10E7A000BCC08091A001982F9F77913249F590913C
:10E7B000A1019032A1F0913219F5813A09F58091C9
:10E7C000E800877F8093E80088E091E067E070E0F0
:10E7D000E2D18091E8008B778093E8000895813240
:10E7E00079F48091E800877F8093E80088E091E0E9
:10E7F00067E070E029D28091E8008E778093E8008E
:10E800000895923029F0933041F0913061F410C0B6
:10E810008EE390E02DE331E01EC0882371F081305B
:10E8200089F08230A1F080E090E020E030E013C079
:10E8300082E190E02BE731E00EC084E090E029E334
:10E8400031E009C088E190E028E930EE04C088E2B8
:10E8500090E02FE031E0FA01318320830895DC015C
:10E86000CB0107B600FCFDCFF999FECF23E0FC01F8
:10E87000A0935B0020935700E89507B600FCFDCFFE
:10E8800081E180935700E8950895DC01CB0107B63C
:10E8900000FCFDCFF999FECF25E0FC01A0935B00C1
:10E8A00020935700E89507B600FCFDCF81E18093E7
:10E8B0005700E8950895DC01CB0107B600FCFDCFB9
:10E8C000F999FECF21E00A01FC01A0935B0020939F
:10E8D0005700E8951124089521E2FC012093570088
:10E8E0008491089529E0FC012093570084910895B4
:10E8F000E1E0F0E089E0809357008491089507B645
:10E9000000FCFDCFF999FECF809599E0E1E0F0E0C1
:10E91000082E90935700E89508958F708093E90032
:10E92000EBEEF0E0808181608083EDEEF0E010821C
:10E930006093EC0040838091EE00881F8827881F39
:10E9400008958091A00187FF11C003C08EB3882372
:10E95000B1F08091E80082FFF9CF8091E8008B77D9
:10E960008093E80008958EB3882349F08091E800F1
:10E9700080FFF9CF8091E8008E778093E8000895BA
:10E980000F931F93CF93DF9344D04BD0C8EDD0E0CB
:10E9900088818F77888388818068888388818F7D4C
:10E9A0008883E7EDF0E080818068808319BC1EBA1F
:10E9B00010929E0100EE10E0F80180818B7F808331
:10E9C00088818160888380E060E042E0A6DFE1EE3C
:10E9D000F0E080818E7F8083E2EEF0E080818160D4
:10E9E0008083808188608083F80180818E7F80832E
:10E9F000888180618883DF91CF911F910F91089565
:10EA0000E7EDF0E080818160808381E080939F0169
:10EA1000B7CFE8EDF0E080818C7F80831092E20038
:10EA200008951092DA001092E10008951F920F925B
:10EA30000FB60F920BB60F9211242F933F934F9363
:10EA40005F936F937F938F939F93AF93BF93EF9356
:10EA5000FF938091DA0080FF1BC08091D80080FF77
:10EA600017C08091DA008E7F8093DA008091D90000
:10EA700080FF0BC084E189BD86E189BD09B400FE39
:10EA8000FDCF81E08EBB33D203C019BC1EBA2FD29A
:10EA90008091E10080FF17C08091E20080FF13C0E9
:10EAA0008091E2008E7F8093E2008091E20080619D
:10EAB0008093E2008091D80080628093D80019BCD6
:10EAC00085E08EBB14D28091E10084FF2CC0809140
:10EAD000E20084FF28C084E189BD86E189BD09B4D4
:10EAE00000FEFDCF8091D8008F7D8093D80080916B
:10EAF000E1008F7E8093E1008091E2008F7E809321
:10EB0000E2008091E20081608093E20080919E01AA
:10EB1000882321F48091E30087FF02C084E001C0D4
:10EB200081E08EBBE4D18091E10083FF21C0809120
:10EB3000E20083FF1DC08091E100877F8093E100A8
:10EB400082E08EBB10929E018091E1008E7F8093C7
:10EB5000E1008091E2008E7F8093E2008091E200EC
:10EB600080618093E20080E060E042E0D6DEBFD1C9
:10EB7000FF91EF91BF91AF919F918F917F916F9195
:10EB80005F914F913F912F910F900BBE0F900FBE51
:10EB90000F901F9018952091A6013091A70126177C
:10EBA000370720F4B901FC0120E035C0611571057B
:10EBB000D1F72091E8002E772093E800F4CF8EB3B0
:10EBC0008823F1F18530C1F18091E80083FD36C0E2
:10EBD0008091E80082FD2AC08091E80080FF1BC080
:10EBE0008091F2009091F30006C021912093F100F2
:10EBF0006150704001966115710519F088309105DA
:10EC0000A0F321E08830910509F020E08091E80030
:10EC10008E778093E8006115710589F6222379F6D5
:10EC200005C08EB3882361F0853061F08091E800E3
:10EC300082FFF7CF80E0089583E0089581E0089592
:10EC400082E0089583E008956115710529F420910B
:10EC5000E8002B772093E800382F292F25C08EB3AA
:10EC60008823A9F1853079F18091E80083FD2DC0DA
:10EC70008091E80082FFF3CFE32FF22F08C080914C
:10EC8000F10081933E2F2F2F6150704041F03E2FB5
:10EC90002F2F8091F2009091F300009781F78091DF
:10ECA000E8008B778093E80061157105C1F605C017
:10ECB0008EB3882361F0853061F08091E80080FF99
:10ECC000F7CF80E0089583E0089581E0089582E021
:10ECD000089583E008950F931F93CF93DF9300D09F
:10ECE000CDB7DEB788E0E0EAF1E09091F1009193D2
:10ECF0008150D9F756DD8091E80083FFE3C0809111
:10ED0000A0019091A101953009F46CC0963040F4B7
:10ED1000913069F1913070F0933009F0D3C027C081
:10ED2000983009F4A2C0993009F4B1C0963009F0C6
:10ED3000C9C07BC0803881F0823809F0C3C080919F
:10ED4000A4018F708093E9009091EB0081E095FF22
:10ED500080E01092E90001C080E09091E800977F88
:10ED60009093E8008093F1001092F10089C088230D
:10ED700019F0823009F0A6C08F71823009F0A2C06C
:10ED80008091A201882341F52091A4012F7009F4FC
:10ED900099C02093E9008091EB0080FF1DC0809115
:10EDA000A101833021F48091EB00806213C0809137
:10EDB000EB0080618093EB0081E090E002C0880F5F
:10EDC000991F2A95E2F78093EA001092EA00809159
:10EDD000EB0088608093EB001092E9008091E800DE
:10EDE000877F51C0882309F06DC01091A2011F7761
:10EDF0000FB7F8948091E800877F8093E800A1DD49
:10EE00008091E80080FFFCCF8091E3008078812B27
:10EE10008093E30080688093E300112311F083E086
:10EE200001C082E08EBB0FBF4DC08058823008F019
:10EE300049C08091A2019091A3016091A401AE010B
:10EE40004F5F5F4FDEDCBC01009709F43BC080914F
:10EE5000E800877F8093E80089819A819CDE809119
:10EE6000E8008B778093E8002DC0803859F58091B9
:10EE7000E800877F8093E80080919E018093F100F5
:10EE80008091E8008E778093E8005BDD1BC08823CB
:10EE9000C9F49091A2019230A8F48091E800877F94
:10EEA0008093E80090939E014CDD80919E01882321
:10EEB00021F48091E30087FF02C084E001C081E07B
:10EEC0008EBB63DC8091E80083FF0AC08091EB0079
:10EED00080628093EB008091E800877F8093E80058
:10EEE0000F900F90DF91CF911F910F91089508958A
:10EEF000CF938EB38823A9F08091E9008F70909111
:10EF0000EC0090FF02C0C0E801C0C0E0C82B109226
:10EF1000E9008091E80083FF01C0DDDECF70C0937F
:10EF2000E900CF910895F999FECF92BD81BDF89A7D
:10EF3000992780B50895262FF999FECF1FBA92BD63
:10EF400081BD20BD0FB6F894FA9AF99A0FBE0196CA
:06EF50000895F894FFCFC4
:10EF56004C55464143444300000000000000082889
:10EF6600034C005500460041002000430044004386
:10EF760000200042006F006F0074006C006F00619B
:10EF86000064006500720000000403090409023EE3
:10EF9600000201008032090400000102020100059E
:10EFA6002400100104240206052406000107058238
:10EFB600030800FF09040100020A00000007050417
:10EFC6000210000507058302100005120110010258
:10EFD600000008EB034A200001010200018008003E
:06EFE60000000001000024
:10FFA0000C942FF40C9445F40C945BF40C946CF4C6
:10FFB0000C9472F40C9478F40C947FF408950895E2
:06FFC00008950895089564
:10FFE000DFCFE0CFE1CFE2CFE3CFE4CFE5CFE6CF85
:08FFF000E6CFE6CFE6CFE6CF35
:08FFF80000E00100B1DFFBDCB9
:040000031000E00009
:00000001FF
